:100000000C941B030C9443030C9443030C94430380
:100010000C9443030C9443030C9443030C94430348
:100020000C9443030C9443030C9443030C94430338
:100030000C9443030C9443030C9443030C94430328
:100040000C94270F0C9443030C9493110C94C5113A
:100050000C9443030C9443030C9443030C94430308
:100060000C9443030C944303A807A507B007B907F2
:10007000C207D207BF07CF07536574757020636F3F
:100080006D706C6574650053657475702073746170
:10009000727400556E6B6E6F776E206B657920748D
:1000A0007970650020204E4F44455F494420202050
:1000B0002020202020203D205B25735D0020205241
:1000C000464D5F4E4554574F524B5F494420203DAB
:1000D000205B25645D00202052464D5F4E4F444515
:1000E0005F494420202020203D205B25645D0043A3
:1000F000757272656E7420636F6E666967004E4F2D
:1001000044455F494420202020202020202020201A
:100110004E4F44455F4944202020202020202020AD
:10012000636861725B25645D0052464D5F4E4554C5
:10013000574F524B5F49442020202052464D5F4E7E
:100140004554574F524B5F49442020696E7400520A
:10015000464D5F4E4F44455F4944202020202020DB
:100160002052464D5F4E4F44455F49442020202099
:1001700020696E7400436F6E74696E75696E6720D6
:100180007374617274757000456E746572696E6720
:10019000206D616E75616C20636F6E666967206D9E
:1001A0006F646500002E005072657373202743272B
:1001B00020616E642027456E7465722720746F205D
:1001C000656E74657220636F6E666967206D6F641B
:1001D00065206F722027512720746F20636F6E7423
:1001E000696E756520696D6D6564696174656C79AA
:1001F000005573696E6720636F6E6669670053749C
:10020000617274696E6720757020696E205B256469
:100210005D00556E6B6E6F776E20636F6D6D616EF6
:1002200064205B25735D0053657474696E67206993
:1002300074656D205B25735D20746F205B25735D95
:1002400000446F6E650045726173696E6720616C72
:100250006C20636F6E6669670044756D70696E67C8
:1002600020454550524F4D20636F6E74656E747318
:1002700000446F6E650044756D70696E6720636F32
:100280006E66696720626C6F636B73004578697492
:10029000696E6720696E7465726163746976652042
:1002A000636F6E666967206D6F6465004C696E658B
:1002B000203D205B25735D00436F6E666967206D8E
:1002C0006F646520656E7465726564004661696C73
:1002D000656420746F207265616420636F6E666967
:1002E000672066726F6D20454550524F4D2E205548
:1002F00073696E672064656661756C7420636F6EE8
:100300006669672E005375636365737366756C6CFD
:1003100079207265616420636F6E6669672066721A
:100320006F6D20454550524F4D2E005265616469F6
:100330006E6720636F6E6669672066726F6D204519
:100340004550524F4D2E0053756363657373667548
:100350006C6C792077726F746520636F6E66696765
:1003600020746F20454550524F4D004661696C65C1
:100370006420746F20777269746520636F6E66699C
:100380006720746F20454550524F4D005772697475
:10039000696E6720636F6E66696720746F204545DC
:1003A00050524F4D0051202020202020203D207110
:1003B00075697400443A502C4E2020203D2064750D
:1003C0006D70204E2062797465732066726F6D20A7
:1003D000454550524F4D20617420706F732050205E
:1003E000636F6E736F6C65004320202020202020F7
:1003F0003D2064756D7020616C6C20636F6E666962
:100400006720626C6F636B7320746F20636F6E7311
:100410006F6C650045202020202020203D20657243
:1004200061736520616C6C20636F6E66696720691B
:100430006E20454550524F4D00482020202020205E
:10044000203D207072696E7420746869732068653D
:100450006C702074657874005220202020202020A9
:100460003D207265616420636F6E66696720667205
:100470006F6D20454550524F4D00573A5020202077
:1004800020203D20777269746520636F6E6669670E
:1004900020746F20454550524F4D204F7074696F46
:1004A0006E616C2028503D506F7329200050202031
:1004B00020202020203D207072696E7420636F6EB2
:1004C000666967004974656D2049642020202020FA
:1004D0002020202020204974656D204E616D65200C
:1004E00020202020202056616C756500533A4B2C4B
:1004F000562020203D20736574206974656D204B63
:1005000020746F2076616C7565205600436F6D6DA9
:10051000616E64732061726500426C6F636B207260
:1005200065616420657272726F3A20636865636BFF
:1005300073756D206D69736D6174636800577269BE
:1005400074696E6720626C6F636B206174205B005E
:10055000426C6F636B20666F756E64206174205B04
:1005600000426C6F636B206E6F7420666F756E64F3
:100570000057726974652061626F727465643A2015
:100580007461672073697A6520696E636F72726542
:100590006374007468726F74746C650020646972AF
:1005A000656374696F6E0054696D656F757420665C
:1005B0006F72206C61737420636F6D6D616E642067
:1005C00065786365656465642E205265736574742F
:1005D000696E6720746F2043454E54524500526542
:1005E00061642066726F6D20426C7565746F6F7404
:1005F00068202D2000010204081020408001020420
:100600000810200102040810200404040404040457
:1006100004020202020202030303030303000000B8
:1006200000250028002B0000000000240027002ADD
:100630000000B80CF51111241FBECFEFD8E0DEBFCB
:10064000CDBF12E0A0E0B1E0E0E9FAE302C005901E
:100650000D92AC36B107D9F723E0ACE6B2E001C0A9
:100660001D92AE33B207E1F716E0C6E3D6E004C050
:100670002297FE010E946017C233D107C9F70E947A
:1006800039120C94461D0C940000CF93DF938FE435
:1006900091E09F938F93CEE0D1E0DF93CF930E94C0
:1006A000D50589E291E09F938F93DF93CF930E94CA
:1006B000D5051F9284E08F938EEF90E09F938F93E8
:1006C000DF93CF930E94D5058DB79EB70E960FB6D8
:1006D000F8949EBF0FBE8DBFDF91CF910895CF9349
:1006E000DF938FEE90E09F938F93CEE0D1E0DF9386
:1006F000CF930E94D505E6E0F1E081818F93808160
:100700008F9386ED90E09F938F93DF93CF930E941A
:10071000D505E8E0F1E081818F9380818F938DEBA7
:1007200090E09F938F93DF93CF930E94D5058AE04B
:1007300091E09F938F9384EA90E09F938F93DF9350
:10074000CF930E94D5058DB79EB746960FB6F89405
:100750009EBF0FBE8DBFDF91CF9108950F931F9362
:10076000CF93DF938C01EB0164E171E00E9491195A
:10077000892B41F4CE010E94551990930701809373
:1007800006012FC060E271E0C8010E949119892B17
:1007900041F4CE010E9455199093090180930801FC
:1007A00020C068E171E0C8010E949119892B59F4B9
:1007B00044E050E0BE018AE091E0DF91CF911F91CB
:1007C0000F910C94A11983E990E09F938F938EE091
:1007D00091E09F938F930E94D5050F900F900F90FB
:1007E0000F90DF91CF911F910F910895EF92FF929B
:1007F0000F931F93CF93DF9300D000D000D0CDB7DD
:10080000DEB726E040E051EE60E070E08DE992E076
:100810000E94311143E050E06DE972E08EE091E01A
:100820000E945D0467E870E0CE0101960E941715F2
:1008300069817A818EE091E00E94D005CE01019617
:100840000E94EC138EEAE82E83E0F82E0FE613E008
:1008500025E433E048E050E066E071E08FE291E0AB
:100860000E944E0E68E770E0CE0101960E941715B7
:1008700069817A818EE091E00E94D005CE010196D7
:100880000E94EC1326960FB6F894DEBF0FBECDBFC4
:10089000DF91CF911F910F91FF90EF90089564E346
:1008A00071E08EE091E00E94D00568EE73E080E098
:1008B00090E00C94A00F0C94431CFC0171836083A6
:1008C000538342830895CF93DF93EC019B0188818A
:1008D0009981009799F06A817B812617370774F018
:1008E000BA010E94AA1288819981DC01ED91FC91E4
:1008F0000284F385E02DDF91CF910994DF91CF91B0
:100900000895CF92DF92EF92FF920F931F93CF93B0
:10091000DF93CDB7DEB760970FB6F894DEBF0FBE9A
:10092000CDBF8C01DC0112968D919C91139700979D
:1009300049F419821A821B821C821D821E821F8228
:10094000188617C1FE01399628E0DF011D922A950D
:10095000E9F7DC01ED91FC910480F581E02D09952A
:10096000892B09F4D3C062E070E080E090E00E943F
:10097000A00FF80182819381DC01ED91FC9106804A
:10098000F781E02D0995823009F0C0C06E01BAE010
:10099000CB0ED11CEE24E394F12CD80112968D914C
:1009A0009C911397DC01ED91FC910480F581E02D81
:1009B0000995892BA9F061E070E080E090E00E9449
:1009C000A00FF80182819381DC01ED91FC910680FA
:1009D000F781E02D0995F60181936F0187FF06C02D
:1009E000F2E0EF16F10409F491C013C028E0E2161A
:1009F000F10479F0833049F432E0E316F10409F4AC
:100A000085C087E0E816F10421F09FEFE91AF90AA2
:100A1000C4CFB7E0EB16F10409F078C02A8530E0C6
:100A20002053310974E6729FC001739F900D112409
:100A30002B8530E0205331096AE0629FA001639F5B
:100A4000500D1124840F951F2C8530E0205331095F
:100A5000820F931F4D852E85EF856C01F8ECCF1A20
:100A6000D10884569109893C9105E8F450E040533F
:100A70005109749F7001759FF00C112430E02053D0
:100A80003109629FA001639F500D1124E40EF51EF1
:100A90008E2F90E0C097E80EF91EC7018456910989
:100AA000893C910548F04CE351E066E070E08EE04F
:100AB00091E00E9463042AC04FE651E060E070E0DC
:100AC0008EE091E00E946304A701485C510966270B
:100AD00057FD6095762FD80114964D935D936D93D5
:100AE0007C931797C601AA2797FDA095BA2FF80106
:100AF00080879187A287B3870E94710FD8011C96C7
:100B00006D937D938D939C931F972AC00E94710FC4
:100B1000D8011C96CD90DD90ED90FC901F976C193C
:100B20007D098E099F096938734181059105C0F0DF
:100B3000F801148215821682178210861186128699
:100B400013860E94710FF8016487758786879787DF
:100B500040E851E063E070E08EE091E00E946304C1
:100B600088E0F8013496DE01119601900D928A9585
:100B7000E1F729813A814B815C816D817E818F8192
:100B8000988560960FB6F894DEBF0FBECDBFDF919B
:100B9000CF911F910F91FF90EF90DF90CF9008952C
:100BA000AB0163E070E00C946304CF92DF92EF92AC
:100BB000FF920F931F93CF93DF93CDB7DEB70B85D3
:100BC0001C85CDB6DEB6F801648175818DB79EB700
:100BD000861B970B0FB6F8949EBF0FBE8DBFEDB767
:100BE000FEB731967F019E01215F3F4F4D855E85A7
:100BF000CF010E94451AA70163E070E0C8010E947E
:100C000063040FB6F894DEBE0FBECDBEDF91CF9168
:100C10001F910F91FF90EF90DF90CF900895AB015F
:100C200066E070E00C946304FC01862F608371839E
:100C30005383428361E00C941510CF93DF93EC0152
:100C400082E492E0998388837B836A8381E090E0E9
:100C50009D838C830E94710F6E837F838887998721
:100C6000DF91CF910895CF92DF92EF92FF920F9391
:100C70001F93CF93DF93CDB7DEB765970FB6F89488
:100C8000DEBF0FBECDBF8C01DC0112968D919C9111
:100C90001397009709F4DBC0DC01ED91FC9104800F
:100CA000F581E02D0995892B09F4D4C01B8A1C8A93
:100CB0001D8A67EB71E0F801828193810E94E11344
:100CC00026E030E0AE014D5E5F4F63E2D801129640
:100CD0008D919C9113970E94EA12181619060CF038
:100CE0009EC06CE572E0CE010D960E945A14BE01C2
:100CF0006D5E7F4FCE010D960E9453156EED75E02F
:100D0000CE0107960E941715BE01695F7F4FCE0185
:100D100001960E94A814BE01635F7F4FCE01019629
:100D20000E940816FC014081518160E070E08EE075
:100D300091E00E946304CE0101960E94EC13CE0163
:100D400007960E94EC136BEB71E0CE010D960E94AA
:100D50003716F82E6DEB71E0CE010D960E94371616
:100D6000811108C021E090E0F11001C020E0E22EE6
:100D7000F92E03C0E2E0EE2EF12C6FEB71E0CE0114
:100D80000D960E943716882319F073E0E72EF12C98
:100D900062EC71E0CE010D960E943716882319F09F
:100DA00064E0E62EF12C65EC71E0CE010D960E9418
:100DB0003716882319F055E0E52EF12C61EC71E02F
:100DC000CE010D960E943716882319F046E0E42ED6
:100DD000F12C64EC71E0CE010D960E943716882349
:100DE00019F037E0E32EF12C67EC71E0CE010D969F
:100DF0000E943716882319F028E0E22EF12C6AECC5
:100E000071E0CE010D960E943716882319F099E003
:100E1000E92EF12CCE010D960E94EC1302C0E12CBC
:100E2000F12CE114F10409F441CFD8011596FC929C
:100E3000EE9214970E94710FF80166837783808782
:100E40009187D80114968D919C91159734C081E0BB
:100E500090E031C00E94710FF801C680D780E08415
:100E6000F1846C197D098E099F09653F71408105E8
:100E7000910538F381E090E0D80115969C938E930C
:100E800014970E94710FF80166837783808791879A
:100E900067EA75E0CE0101960E94171549815A81D3
:100EA00063E070E08EE091E00E946304CE01019661
:100EB0000E94EC13C6CF65960FB6F894DEBF0FBE46
:100EC000CDBFDF91CF911F910F91FF90EF90DF90F9
:100ED000CF9008958F929F92AF92BF92CF92DF9260
:100EE000EF92FF92CF93DF93CDB7DEB72E970FB679
:100EF000F894DEBF0FBECDBF6C010E9433067C01AB
:100F000020E030E048EC52E4F60162857385848588
:100F100095850E94D9160E9457164B015C0120E06E
:100F200030E048EC52E4F601668577858089918946
:100F30000E94D9160E945716F7013297E830F10542
:100F4000D8F5EC5CFF4F0C945E1791948194910856
:100F5000AA2497FCA094BA2CC12CD12C760132C0C3
:100F6000CC24DD24C61AD70AEE24D7FCE094FE2C4C
:100F700026C06B01EE24D7FCE094FE2C20C0919497
:100F800081949108AA2497FCA094BA2CCC24DD2447
:100F9000C61AD70AEE24D7FCE094FE2C13C0919415
:100FA00081949108AA2497FCA094BA2C6B01EE249A
:100FB000D7FCE094FE2C06C0C12CD12C7601812CEC
:100FC000912C540163E975E0CE0109960E94171532
:100FD000BE01675F7F4FCE0101960E94A814B50144
:100FE000A401CE0101960E941B166CE975E00E94D7
:100FF0002916B701A6010E941B16FC0140815181F0
:1010000060E070E08EE091E00E946304CE01019602
:101010000E94EC13CE0109960E94EC1389829A82F9
:10102000AB82BC82CD82DE82EF82F886282D3A81A7
:101030004B815C816C2D7E818F8198852E960FB6B9
:10104000F894DEBF0FBECDBFDF91CF91FF90EF9040
:10105000DF90CF90BF90AF909F908F900895CF93E7
:10106000DF93EC0188E492E0998388837B836A8331
:101070001C821D821E821F82188619861A861B8674
:101080000E94710F6C877D878E879F87DF91CF913C
:101090000895CF93DF93EC010E945B048D3499F4A3
:1010A000CE0101960E945B04873469F4CE0102965A
:1010B0000E945B04873439F4CE0103960E945B04DE
:1010C00091E0873409F090E0892FDF91CF91089566
:1010D0000F931F93CF93DF938C01EB010E945B046E
:1010E00090E02881332727FD30958217930731F54B
:1010F000C80101960E945B0490E02981332727FDF7
:10110000309582179307D1F4C80102960E945B04C0
:1011100090E02A81332727FD30958217930771F4D9
:10112000C80103960E945B04482F50E02B813327AF
:1011300027FD309581E04217530709F080E0DF91E9
:10114000CF911F910F9108950F931F93CF93DF932A
:101150008C01EB01C11584E0D8078CF4CE010E940C
:101160004908882351F00115110559F0B801CE0145
:1011700004960E946808811104C02196EBCFCFEF3E
:10118000DFEFCE01DF91CF911F910F910895AF92C4
:10119000BF92CF92DF92EF92FF920F931F93CF9364
:1011A000DF937C016A015901EB0100E010E00C15AE
:1011B0001D0548F46991C8018E0D9F1D0E944B1CAE
:1011C0000F5F1F4FF4CFA114B10419F088E5F501AA
:1011D0008083C7018C0D9D1DDF91CF911F910F91D1
:1011E000FF90EF90DF90CF90BF90AF900895CF9297
:1011F000DF92EF92FF920F931F93CF93DF931F9293
:10120000CDB7DEB78C017B01C12CD12CCE14DF040D
:1012100060F4642FC601800F911F49830E944B1C0C
:101220008FEFC81AD80A4981F1CF0F90DF91CF9183
:101230001F910F91FF90EF90DF90CF9008956F92E4
:101240007F928F929F92AF92BF92CF92DF92EF9256
:10125000FF920F931F93CF93DF93CDB7DEB72897FD
:101260000FB6F894DEBF0FBECDBF6C014B01742EDC
:10127000652E5901FC0101900020E9F73197E81B28
:10128000F90B349718F461E775E010C0F901E080BC
:10129000F180FFEFEF16FF06E9F460E070E00E94D6
:1012A000A4087C0197FF13C061E675E0CE010196AA
:1012B0000E94171569817A818EE091E00E940F06E5
:1012C000CE0101960E94EC138FEF9FEF58C060E5AE
:1012D00075E002C06DE375E0CE0101960E9417151E
:1012E000B701CE0101960E94761569EE71E0CE013C
:1012F00001960E94531569817A818EE091E00E94E7
:10130000D005CE0101960E94EC13188620E030E053
:1013100044E050E06BEE71E0C7010E94C7089E01F7
:10132000285F3F4F44E050E0B6010E94C7087F822B
:101330009E01285F3F4F41E050E0BE01695F7F4F53
:101340000E94C7089E01285F3F4F472D562DB401CC
:101350000E94C7082885298320E030E041E050E062
:10136000BE016F5F7F4F0E94C708F501F182E082E6
:101370008E199F09F8019183808380E090E0289680
:101380000FB6F894DEBF0FBECDBFDF91CF911F9196
:101390000F91FF90EF90DF90CF90BF90AF909F9014
:1013A0008F907F906F9008959F92AF92BF92CF924F
:1013B000DF92EF92FF920F931F93CF93DF937C0105
:1013C0006B015901EA0100E010E0F8E59F2E0C15D1
:1013D0001D0570F4C8018E0D9F1D0E945B0489934A
:1013E000A114B10411F0F50190820F5F1F4FEFCFF0
:1013F000C7018C0D9D1DDF91CF911F910F91FF9023
:10140000EF90DF90CF90BF90AF909F9008957F9224
:101410008F929F92AF92BF92CF92DF92EF92FF9204
:101420000F931F93CF93DF93CDB7DEB761970FB6BE
:10143000F894DEBF0FBECDBF6C014B01742E590175
:1014400020E030E0AE01455F5F4F64E070E00E9455
:10145000D409198A9E012F5E3F4FAE01495F5F4F4D
:1014600064E070E00E94D409E114F10449F04F8176
:10147000588569857A85F701408351836283738338
:10148000788A9E012F5E3F4FAE01405F5F4F61E063
:1014900070E00E94D409E888F12C9E012F5E3F4F36
:1014A000A401B7010E94D40920E030E0AE01415F01
:1014B0005F4F61E070E00E94D4093F8529893217AF
:1014C00099F069E175E0CE0101960E9417156981D6
:1014D0007A818EE091E00E940F06CE0101960E9473
:1014E000EC138FEF9FEF0AC08C199D09F8019183CF
:1014F0008083F501F182E08280E090E061960FB692
:10150000F894DEBF0FBECDBFDF91CF911F910F9139
:10151000FF90EF90DF90CF90BF90AF909F908F9013
:101520007F900895AF92BF92CF92DF92EF92FF9299
:101530000F931F93CF93DF9300D000D0CDB7DEB7CA
:101540005B01670160E070E02B833C8349835A8331
:101550000E94A408F801918380832B813C814981FA
:101560005A8197FD07C0E12CF12C8601B5010E943C
:10157000070A02C08FEF9FEF0F900F900F900F9010
:10158000DF91CF911F910F91FF90EF90DF90CF905F
:10159000BF90AF9008956F927F928F929F92AF927B
:1015A000BF92CF92DF92EF92FF920F931F93CF9350
:1015B000DF93CDB7DEB7C455D1090FB6F894DEBFBF
:1015C0000FBECDBF6C01CE0101965C01ADE46A2E69
:1015D000712C6C0E7D1E94E0690E711CC11484E0A8
:1015E000D8060CF08FC0B60180E090E00E94A408FD
:1015F0004C0197FD83C0FE01E35BFF4F7F018E012D
:101600000D5A1F4F9E012F5A3F4F40E450E0B50145
:101610000E94070A60EF71E0CE01895B9F4F0E9434
:101620005A148701F80161918F01CE01895B9F4FA8
:101630000E94631506151705A9F761E072E0CE0157
:10164000895B9F4F0E945315B401CE01895B9F4F68
:101650000E94761567E172E0CE01895B9F4F0E9480
:10166000531565966EAD7FAD6597CE01895B9F4F33
:101670000E94761562E272E0CE01895B9F4F0E9464
:101680005315450163968EAD9FAD639794012A195A
:101690003B0928173907BCF4F40161914F0140E17F
:1016A000CE018F5B9F4F0E94C914BE016F5B7F4FBD
:1016B000CE01895B9F4F0E944C15CE018F5B9F4FDF
:1016C0000E94EC13DFCF69EE71E0CE01895B9F4F82
:1016D0000E945315BE01695B7F4F8DE992E00E9425
:1016E000981265968EAD9FAD65970196C80ED91E6E
:1016F000CE01895B9F4F0E94EC1370CFFFEFCF1A92
:10170000DF0A6CCFCC5ADF4F0FB6F894DEBF0FBEA6
:10171000CDBFDF91CF911F910F91FF90EF90DF90A0
:10172000CF90BF90AF909F908F907F906F900895D3
:101730000F931F93CF93DF938C012CE035E03F9301
:101740002F93CEE0D1E0DF93CF930E94D5052CEE0E
:1017500034E03F932F93DF93CF930E94D50524EC81
:1017600034E03F932F93DF93CF930E94D505F80188
:1017700009958DEA94E09F938F93DF93CF930E9416
:10178000D5058AE794E09F938F93DF93CF930E94D0
:10179000D50588E594E09F938F93DF93CF930E94C4
:1017A000D50589E394E09F938F93DF93CF930E94B5
:1017B000D50584E194E09F938F93DF93CF930E94AC
:1017C000D505EDB7FEB7B0960FB6F894FEBF0FBEC5
:1017D000EDBF88EE93E09F938F93DF93CF930E94AA
:1017E000D50584EB93E09F938F93DF93CF930E9473
:1017F000D50585EA93E09F938F93DF93CF930E9463
:10180000D505EDB7FEB73C960FB6F894FEBF0FBEF8
:10181000EDBFDF91CF911F910F910895EF92FF924D
:101820000F931F93CF93DF93CDB7DEB72A970FB6F1
:10183000F894DEBF0FBECDBF8901ECE8F3E0FF9363
:10184000EF93BEE0EB2EB1E0FB2EFF92EF924987C3
:101850005A876F8378878D839E830E94D5051C836A
:101860000B838E010F5F1F4F9E012D5F3F4F4985F8
:101870005A856F8178858D819E810E941F090F9006
:101880000F900F900F9097FF03C08BE693E002C07C
:1018900087E493E09F938F93FF92EF920E94D50588
:1018A0000F900F900F900F902A960FB6F894DEBF0E
:1018B0000FBECDBFDF91CF911F910F91FF90EF90A1
:1018C0000895CF92DF92EF92FF920F931F93CF93E1
:1018D000DF93CDB7DEB72C970FB6F894DEBF0FBEFF
:1018E000CDBF2BE233E03F932F931EE0C12E11E0DA
:1018F000D12EDF92CF924B875C8769877A878F835F
:1019000098870E94D5059E012F5F3F4F79018E0178
:101910000D5F1F4F2C5F3F4F4B855C8569857A8536
:101920008F8198850E94920A0F900F900F900F90D0
:10193000892B19F485E093E002C08CEC92E09F9330
:101940008F93DF92CF920E94D5050F900F900F904A
:101950000F902C960FB6F894DEBF0FBECDBFDF916F
:10196000CF911F910F91FF90EF90DF90CF9008954E
:1019700044E150E06DE070E080E992E00E941406DE
:1019800060E070E08EE792E00E941D0660E070E08B
:101990008EE692E00C942F080F931F93CF93DF9362
:1019A0008C016CE572E00E949A19C0E0D0E08DE9EC
:1019B00092E00E944E1018161906ACF4CD2B89F453
:1019C0008DE992E00E9467108A3041F0F8010190A1
:1019D0000020E9F7319780831182E7CFC1E0D0E0A2
:1019E000E6CFC1E0D0E0CE01DF91CF911F910F9102
:1019F00008952F923F924F925F926F927F928F92B3
:101A00009F92AF92BF92CF92DF92EF92FF920F938D
:101A10001F93CF93DF93CDB7DEB7A7970FB6F89498
:101A2000DEBF0FBECDBF3C016B015A0129011BA3D4
:101A30000AA3FDA2ECA288EB92E09F938F938EE025
:101A400091E09F938F930E94D505C2010E94980B4D
:101A50000F900F900F900F908E010F5F1F4F9EE021
:101A6000E92E91E0F92E22E1222E22E0322EC80149
:101A70000E94CC0C0197D9F71F930F93ACEAB2E008
:101A8000BF93AF938EE0882E81E0982EFF92EF9265
:101A90000E94D505298129A30F900F900F900F90D8
:101AA0000F900F90283421F4C2010E94980BA6C019
:101AB00064E372E0C8010E949119892B51F58CE80A
:101AC00092E09F938F939F928F920E94D5056CE531
:101AD00072E0C8010E949A190F900F900F900F901A
:101AE000A7960FB6F894DEBF0FBECDBFDF91CF91A2
:101AF0001F910F91FF90EF90DF90CF90BF90AF902C
:101B00009F908F907F906F905F904F903F902F901D
:101B1000089562E371E0C8010E949119892B79F45C
:101B2000A6E7B2E0BF93AF93FF92EF920E94D50574
:101B300080E090E00E94CB0AA1E7B2E02DC039A17D
:101B4000343491F4A9E5B2E0BF93AF93FF92EF92E2
:101B50000E94D5056CE572E0C8010E949A190F90A9
:101B60000F900F900F9083CF66E372E0C8010E9440
:101B70009119892BC1F4A6E4B2E0BF93AF93FF9211
:101B8000EF920E94D50548E560E074E080E090E0C7
:101B90000E94F708A1E4B2E0BF93AF93FF92EF92E7
:101BA0000E94D5055CC068E372E0C8010E949119EB
:101BB000892B21F4EAA1FBA1099520C029A1273591
:101BC000A9F46AE372E0C8010E948319DC012C9138
:101BD000211103C02FEF3FEF03C00E9455199C0154
:101BE000A501B601C3010E940E0C08C029A122352F
:101BF00059F4A501B601C3010E94610C6CE572E0C5
:101C0000C8010E949A1933CF39A1333599F56CE395
:101C100072E0C8010E9483196AE372E080E090E0FC
:101C20000E9483194C016AE372E080E090E00E9418
:101C300083199F938F939F928F92A7E2B2E0BF93F5
:101C4000AF93FF92EF928EA39FA30E94D5058EA122
:101C5000682F9FA1792FC401ECA1FDA109956CE526
:101C600072E0C8010E949A190FB6F894DEBF0FBE49
:101C7000CDBFFDCE1F930F933F922F92FF92EF9215
:101C80000E94D5056CE572E0C8010E949A190F9078
:101C90000F900F900F900F900F90E9CE2F923F92E0
:101CA0004F925F926F927F928F929F92AF92BF926C
:101CB000CF92DF92EF92FF920F931F93CF93DF9318
:101CC000CDB7DEB7A0970FB6F894DEBF0FBECDBF7D
:101CD0003C016B015A01490128011F928AE08F9350
:101CE0008EEF91E09F938F930EE011E01F930F937F
:101CF0000E94D50581EF91E09F938F931F930F93DF
:101D00000E94D505A501B601C3010E94610CF20134
:101D1000099587EA91E09F938F931F930F930E94F9
:101D2000D5050FB6F894DEBF0FBECDBF00E010E0C2
:101D3000A5EAB1E0BF93AF93AEE0B1E0BF93AF933C
:101D40000E94D50568EE73E080E090E00E94A00F4D
:101D5000CE0101960E94CC0C0F900F900F900F9027
:101D60000197E9F462E371E0CE0101960E949119B6
:101D7000892B51F46CE572E0CE0101960E949A190C
:101D800022242394312C0DC064E372E0CE0101962D
:101D90000E949119212C312C892B19F40DC0212C72
:101DA000312C0930110541F00F5F1F4F232809F432
:101DB000BFCF22242394312C24EA31E03F932F9388
:101DC0000EE011E01F930F930E94D5050F900F9026
:101DD0000F900F902A94232899F488E891E09F931C
:101DE0008F931F930F930E94D50582019401A50143
:101DF000B601C3010E94F90C0F900F900F900F9045
:101E000085E791E09F938F938EE091E09F938F936E
:101E10000E94D5050F900F900F900F90A0960FB6CF
:101E2000F894DEBF0FBECDBFDF91CF911F910F9110
:101E3000FF90EF90DF90CF90BF90AF909F908F90EA
:101E40007F906F905F904F903F902F9008951F92DA
:101E50000F920FB60F9211242F933F938F939F935E
:101E6000AF93BF938091950290919602A0919702B3
:101E7000B09198023091940223E0230F2D3720F483
:101E80000196A11DB11D05C026E8230F0296A11DD4
:101E9000B11D209394028093950290939602A09393
:101EA0009702B09398028091990290919A02A09122
:101EB0009B02B0919C020196A11DB11D80939902D5
:101EC00090939A02A0939B02B0939C02BF91AF9112
:101ED0009F918F913F912F910F900FBE0F901F9068
:101EE00018952FB7F89460919502709196028091A1
:101EF0009702909198022FBF08953FB7F894809170
:101F0000990290919A02A0919B02B0919C0226B5F1
:101F1000A89B05C02F3F19F00196A11DB11D3FBF21
:101F20006627782F892F9A2F620F711D811D911DB1
:101F300042E0660F771F881F991F4A95D1F70895D1
:101F40008F929F92AF92BF92CF92DF92EF92FF92C9
:101F50006B017C010E947D0F4B015C01C114D10417
:101F6000E104F104F1F00E9456160E947D0F6819F9
:101F700079098A099B09683E73408105910570F3D0
:101F800021E0C21AD108E108F10888EE880E83E04A
:101F9000981EA11CB11CC114D104E104F10429F75D
:101FA000DDCFFF90EF90DF90CF90BF90AF909F90EC
:101FB0008F900895789484B5826084BD84B58160E3
:101FC00084BD85B5826085BD85B5816085BDEEE641
:101FD000F0E0808181608083E1E8F0E01082808120
:101FE00082608083808181608083E0E8F0E080818E
:101FF00081608083E1EBF0E0808184608083E0EBAE
:10200000F0E0808181608083EAE7F0E08081846095
:1020100080838081826080838081816080838081F1
:10202000806880831092C1000895CF93DF9390E081
:10203000FC01EB50FA4F2491FC01E75FF94F8491CA
:10204000882349F190E0880F991FFC01E95DF94F61
:10205000A591B491835E994FFC01C591D4919FB72E
:10206000611108C0F8948C91209582238C9388810B
:1020700082230AC0623051F4F8948C91322F30954B
:1020800083238C938881822B888304C0F8948C915D
:10209000822B8C939FBFDF91CF910895FC01818D9E
:1020A000228D90E0805C9F4F821B91098F7399274E
:1020B0000895FC01918D828D981731F0828DE80F83
:1020C000F11D858D90E008958FEF9FEF0895FC013D
:1020D000918D828D981761F0828DDF01A80FB11D5F
:1020E0005D968C91928D9F5F9F73928F90E0089583
:1020F0008FEF9FEF08958BEE91E1892B49F080E0FF
:1021000090E0892B29F00E94EB1181110C940000C2
:102110000895FC01848DDF01A80FB11DA35ABF4FA4
:102120002C91848D90E001968F739927848FA689D6
:10213000B7892C93A089B1898C9180648C93938DFD
:10214000848D981306C00288F389E02D80818F7DED
:1021500080830895CF93DF93EC01888D8823C9F0A5
:10216000EA89FB89808185FD05C0A889B9898C91A0
:1021700086FD0FC00FB607FCF5CF808185FFF2CF3B
:10218000A889B9898C9185FFEDCFCE010E94891075
:10219000E7CFDF91CF910895CF92DF92FF920F9317
:1021A0001F93CF93DF931F92CDB7DEB76C0181E011
:1021B000D60158968C9358975B969C915B975C964A
:1021C0008C915C97981307C05096ED91FC915197B4
:1021D000808185FD2EC0F601038D10E00F5F1F4F3B
:1021E0000F731127F02EF601848DF81211C00FB66F
:1021F00007FCF9CFD6015096ED91FC915197808163
:1022000085FFF1CFC60169830E9489106981EBCFF8
:10221000838DE80FF11DE35AFF4F6083D6015B9673
:102220000C935B975296ED91FC915397808180625D
:102230000CC0D6015696ED91FC915797608350964D
:10224000ED91FC91519780818064808381E090E0E2
:102250000F90DF91CF911F910F91FF90DF90CF9062
:102260000895BF92CF92DF92EF92FF92CF93DF93C8
:10227000EC016A017B01B22EE889F98982E0808352
:10228000411581EE580761057105A1F060E079E024
:102290008DE390E0A70196010E943C17215031097F
:1022A000410951095695479537952795211580E1A4
:1022B000380798F0E889F989108260E874E88EE1BF
:1022C00090E0A70196010E943C1721503109410975
:1022D00051095695479537952795EC85FD853083AF
:1022E000EE85FF852083188EEC89FD89B082EA890E
:1022F000FB89808180618083EA89FB898081886095
:102300008083EA89FB89808180688083EA89FB89F0
:1023100080818F7D8083DF91CF91FF90EF90DF9060
:10232000CF90BF9008951F920F920FB60F92112475
:102330002F938F939F93EF93FF93E091AD02F091D2
:10234000AE028081E091B302F091B40282FD12C02E
:1023500090818091B6028F5F8F732091B7028217B0
:1023600051F0E091B602F0E0E356FD4F958F809377
:10237000B60201C08081FF91EF919F918F912F91C3
:102380000F900FBE0F901F9018951F920F920FB6CF
:102390000F9211242F933F934F935F936F937F93EB
:1023A0008F939F93AF93BF93EF93FF938DE992E049
:1023B0000E948910FF91EF91BF91AF919F918F91F2
:1023C0007F916F915F914F913F912F910F900FBE31
:1023D0000F901F9018958DE992E00E944E1021E019
:1023E000892B09F420E0822F08951092A002109208
:1023F0009F0288EE93E0A0E0B0E08093A10290936A
:10240000A202A093A302B093A4028EE492E0909360
:102410009E0280939D0285EC90E09093AA028093A7
:10242000A90284EC90E09093AC028093AB0280EC24
:1024300090E09093AE028093AD0281EC90E0909397
:10244000B0028093AF0282EC90E09093B20280934E
:10245000B10286EC90E09093B4028093B3021092A4
:10246000B6021092B7021092B8021092B902089503
:1024700008950E94DA0F0E9438120E94F603CBE7FB
:10248000D0E10E944F042097E1F30E947B10F9CF26
:10249000CF92DF92EF92FF920F931F93CF93DF9330
:1024A0007C016A01EB0100E010E00C151D0571F0E4
:1024B0006991D701ED91FC910190F081E02DC70168
:1024C0000995892B19F00F5F1F4FEFCFC801DF91DE
:1024D000CF911F910F91FF90EF90DF90CF900895D3
:1024E0006115710581F0DB010D900020E9F7AD0168
:1024F00041505109461B570BDC01ED91FC910280C4
:10250000F381E02D099480E090E00895DC01ED91E5
:10251000FC91DB0114964D915C9115976D917C9126
:102520000280F381E02D09946AE572E00C94701248
:102530000F931F93CF93DF93EC010E9486128C01BF
:10254000CE010E949412800F911FDF91CF911F91B5
:102550000F9108950F931F93CF93DF93EC010E9487
:1025600070128C01CE010E949412800F911FDF9196
:10257000CF911F910F9108950F931F93CF93DF93E6
:10258000EC010E94710F688779878A879B87E881B1
:10259000F9810680F781E02DCE01099597FF15C0DE
:1025A0000E94710F088519852A853B85601B710B78
:1025B000820B930B0C811D812E813F816017710767
:1025C0008207930720F38FEF9FEFDF91CF911F9149
:1025D0000F910895AF92BF92CF92DF92EF92FF9248
:1025E0000F931F93CF93DF936C0179012115310570
:1025F000B9F08A01C0E0D0E0A62EBB24A7FCB094BD
:10260000C6010E94BC1297FD0EC08A159B0559F0A9
:10261000F80181938F012196CE15DF0589F703C05C
:1026200080E090E001C0CE01DF91CF911F910F912A
:10263000FF90EF90DF90CF90BF90AF9008954F92B2
:102640005F926F927F928F929F92AF92BF92CF9242
:10265000DF92EF92FF920F931F93CF93DF934C0182
:10266000EB0186E0849F8001859F100D1124060FE9
:10267000171FFB01E017F10708F582819381892B71
:1026800021F13696F7CF4081518164817581DA015D
:10269000A60FB71F2C91332727FD3095821793077C
:1026A00011F56F5F7F4F75836483228133816217D9
:1026B000730759F03696E017F10728F3C4010E941A
:1026C000BC1297FD46C0FE01F6CFEC1BFD0BF59545
:1026D000E7952BEA3AEAE29FC001E39F900DF29F53
:1026E000900D112438C06115710521F3A480B580C7
:1026F00095012150310935832483DA01A20FB31FDC
:10270000AC91BB27A7FDB0958A179B07F9F421155B
:102710003105C9F06A017B01E21AF30AE40EF51EE5
:10272000412C512CD6016D906D01D7017D907D011A
:10273000671006C0BFEF4B1A5B0A4216530690F3B0
:102740004216530699F6B582A482B4CF232B71F6B4
:10275000B1CF8FEF9FEFDF91CF911F910F91FF903E
:10276000EF90DF90CF90BF90AF909F908F907F9031
:102770006F905F904F900895CF93DF9300D000D07B
:1027800000D0CDB7DEB7FE01319626E0DF011D9205
:102790002A95E9F77A8369835C834B8341E050E0B3
:1027A000BF010E941F1321E0892B09F020E0822F36
:1027B00026960FB6F894DEBF0FBECDBFDF91CF9146
:1027C0000895FB0101900020E9F7AF014150510944
:1027D000461B570B0C94BC13FC01808191810C9417
:1027E000FC17CF93DF93EC0188819981009711F05A
:1027F0000E94FC17198218821D821C821B821A8279
:10280000DF91CF9108950F931F93CF93DF93EC0146
:102810008B016F5F7F4F888199810E948B18009791
:1028200031F0998388831B830A8381E001C080E0B3
:10283000DF91CF911F910F910895CF93DF93EC011A
:1028400088819981892B29F08A819B818617970736
:1028500060F4CE010E940314882341F08C819D8195
:10286000892B19F4E881F981108281E0DF91CF9101
:102870000895EF92FF920F931F93CF93DF93EC0194
:102880007B018A01BA010E941D14811104C0CE018E
:102890000E94F11307C01D830C83B70188819981C1
:1028A0000E949A19CE01DF91CF911F910F91FF9055
:1028B000EF900895FC01118210821382128215821A
:1028C00014826115710559F0FB0101900020E9F7B0
:1028D000AF0141505109461B570B0C943914089510
:1028E000EF92FF920F931F93CF93DF93EC017B0145
:1028F0008A01BA010E941D14811104C0CE010E94F8
:10290000F11307C01D830C83B701888199810E9450
:102910007319CE01DF91CF911F910F91FF90EF902E
:102920000895CF93DF93EC01FB018617970761F0C1
:10293000608171816115710529F0448155810E9482
:10294000391402C00E94F113CE01DF91CF91089596
:10295000FC011182108213821282158214820C945F
:102960009114CF93DF93EC016115710561F0FB01C8
:1029700001900020E9F7AF0141505109461B570B68
:102980000E94391402C00E94F113CE01DF91CF9151
:1029900008950F931F93CF93DF93CDB7DEB7299799
:1029A0000FB6F894DEBF0FBECDBF8C01862FF801A5
:1029B00011821082138212821582148250E0BE01AD
:1029C0006F5F7F4F90E00E94201ABE016F5F7F4FC4
:1029D000C8010E94B11429960FB6F894DEBF0FBE4D
:1029E000CDBFDF91CF911F910F9108950F931F934A
:1029F000CF93DF9300D0CDB7DEB78C0161157105A1
:102A000061F0CB0169837A830E947A19AC016981F4
:102A10007A81C8010E94701402C00E94F113C8019B
:102A20000F900F90DF91CF911F910F910895FC01AE
:102A30001182108213821282158214820C94F61471
:102A4000EF92FF920F931F93CF93DF93EC017B01E3
:102A50000C811D816115710511F480E016C04115CE
:102A6000510591F0040F151FB8010E941D14882311
:102A7000A1F3288139818C819D81B701820F931F39
:102A80000E949A191D830C8381E0DF91CF911F91E1
:102A90000F91FF90EF900895FB0144815581608173
:102AA00071810C9420156115710559F0FB0101909D
:102AB0000020E9F7AF0141505109461B570B0C9418
:102AC000201580E00895CF93DF9300D0CDB7DEB717
:102AD00069831A8241E050E0BE016F5F7F4F0E9420
:102AE00020150F900F90DF91CF910895EF92FF92F4
:102AF0000F931F93CF93DF93CDB7DEB728970FB611
:102B0000F894DEBF0FBECDBF7C01CB014AE08E0141
:102B10000F5F1F4FB8010E94DC19F80101900020DF
:102B2000E9F7AF0141505109401B510BB801C701F2
:102B30000E94201528960FB6F894DEBF0FBECDBFB9
:102B4000DF91CF911F910F91FF90EF900895EF9239
:102B5000FF920F931F93CF93DF93CDB7DEB72E97DE
:102B60000FB6F894DEBF0FBECDBF7C01CB01BA011A
:102B70002AE08E010F5F1F4FA8010E94E719F8019C
:102B800001900020E9F7AF0141505109401B510B62
:102B9000B801C7010E9420152E960FB6F894DEBF2B
:102BA0000FBECDBFDF91CF911F910F91FF90EF909E
:102BB0000895EF92FF920F931F93CF93DF93EC0151
:102BC0007B016115710511F480E01BC0CB010E94EF
:102BD0007A190097A9F00C811D81080F191FB801FF
:102BE000CE010E941D14882379F3288139818C81BC
:102BF0009D81B701820F931F0E9473191D830C835F
:102C000081E0DF91CF911F910F91FF90EF90089598
:102C1000CF93DF93EC01FB01448155816081718189
:102C20000E942015811103C0CE010E94F113CE0134
:102C3000DF91CF910895CF93DF93EC010E94A71508
:102C4000811103C0CE010E94F113CE01DF91CF911B
:102C50000895CF93DF93EC010E94D915811103C031
:102C6000CE010E94F113CE01DF91CF910895FC01B6
:102C700024813581232B31F421E061157105A1F008
:102C8000FB0108C0FC01808191816115710531F45F
:102C900021E0FC018081882339F005C00E94911950
:102CA00021E0892B09F020E0822F0895089504D0B7
:102CB0006894B11178C008955BD088F09F5790F068
:102CC000B92F9927B751A0F0D1F0660F771F881F51
:102CD000991F1AF0BA95C9F712C0B13081F062D0CD
:102CE000B1E008955FC0672F782F8827B85F39F06B
:102CF000B93FCCF3869577956795B395D9F73EF4B0
:102D000090958095709561957F4F8F4F9F4F089557
:102D100097F99F6780E870E060E008959FEF80EC8E
:102D2000089500240A941616170618060906089531
:102D300000240A9412161306140605060895092E97
:102D40000394000C11F4882352F0BB0F40F4BF2B06
:102D500011F460FF04C06F5F7F4F8F4F9F4F089546
:102D600057FD9058440F551F59F05F3F71F047953C
:102D7000880F97FB991F61F09F3F79F08795089521
:102D8000121613061406551FF2CF4695F1DF08C040
:102D9000161617061806991FF1CF8695710561055D
:102DA00008940895E894BB2766277727CB0197F905
:102DB00008950BD0C4CFB5DF28F0BADF18F0952303
:102DC00009F0A6CFABCF1124EECFCADFA0F3959FB9
:102DD000D1F3950F50E0551F629FF001729FBB2702
:102DE000F00DB11D639FAA27F00DB11DAA1F649FAE
:102DF0006627B00DA11D661F829F2227B00DA11D61
:102E0000621F739FB00DA11D621F839FA00D611DE6
:102E1000221F749F3327A00D611D231F849F600D07
:102E2000211D822F762F6A2F11249F5750408AF040
:102E3000E1F088234AF0EE0FFF1FBB1F661F771FCC
:102E4000881F91505040A9F79E3F510570F060CF08
:102E5000AACF5F3FECF3983EDCF3869577956795B4
:102E6000B795F795E7959F5FC1F7FE2B880F911DEA
:102E70009695879597F90895A1E21A2EAA1BBB1B78
:102E8000FD010DC0AA1FBB1FEE1FFF1FA217B30736
:102E9000E407F50720F0A21BB30BE40BF50B661F4C
:102EA000771F881F991F1A9469F760957095809510
:102EB00090959B01AC01BD01CF010895EE0FFF1F5E
:102EC0000590F491E02D0994CF93DF938230910522
:102ED00010F482E090E0E0913C03F0913D0320E0AB
:102EE00030E0A0E0B0E0309739F1408151814817DF
:102EF0005907B8F04817590771F4828193811097E8
:102F000029F013969C938E9312972CC090933D03B7
:102F100080933C0327C02115310531F04217530738
:102F200018F0A901DB0101C0EF019A01BD01DF0129
:102F30000280F381E02DD7CF21153105F9F0281B50
:102F4000390B2430310580F48A819B81611571052C
:102F500021F0FB019383828304C090933D0380930F
:102F60003C03FE01329644C0FE01E20FF31F819341
:102F7000919322503109398328833AC020913A0332
:102F800030913B03232B41F4209102013091030146
:102F900030933B0320933A032091000130910101CB
:102FA0002115310541F42DB73EB7409104015091F0
:102FB0000501241B350BE0913A03F0913B03E21726
:102FC000F307A0F42E1B3F0B2817390778F0AC014C
:102FD0004E5F5F4F2417350748F04E0F5F1F509329
:102FE0003B0340933A038193919302C0E0E0F0E009
:102FF000CF01DF91CF910895CF93DF93009709F42C
:1030000087C0FC01329713821282C0913C03D09199
:103010003D03209781F420813181280F391F809151
:103020003A0390913B038217930779F5F0933B03A2
:10303000E0933A036DC0DE0120E030E0AE17BF0739
:1030400050F412964D915C9113979D0141155105D5
:1030500009F1DA01F3CFB383A28340815181840F58
:10306000951F8A179B0771F48D919C911197840F7E
:10307000951F02969183808312968D919C91139750
:10308000938382832115310529F4F0933D03E09366
:103090003C033EC0D9011396FC93EE9312974D91D9
:1030A0005D91A40FB51FEA17FB0779F48081918128
:1030B000840F951F0296D90111969C938E9382815D
:1030C000938113969C938E931297E0E0F0E08A81AF
:1030D0009B81009719F0FE01EC01F9CFCE01029619
:1030E00028813981820F931F20913A0330913B034D
:1030F0002817390769F4309729F410923D0310928C
:103100003C0302C013821282D0933B03C0933A0364
:10311000DF91CF910895A0E0B0E0E1E9F8E10C94EF
:10312000131DEC01CB01209719F40E946417B8C05D
:10313000FE01E60FF71F9E0122503109E217F30747
:1031400008F4ACC0D9010D911C911197061717070F
:10315000B8F00530110508F49FC0A801445051098A
:103160004617570708F498C002501109061B170BA1
:10317000019311936D937C93CF010E94FC178CC037
:103180005B01A01AB10A4E01800E911EA0913C0372
:10319000B0913D03612C712C60E070E0109709F450
:1031A00049C0A815B905C9F5ED90FC9011976701C4
:1031B00042E0C40ED11CCA14DB0478F147018A181E
:1031C0009B08640142E0C40ED11C1296BC90129779
:1031D0001396AC91B5E0CB16D10440F0B282A38334
:1031E00091828082D9018D939C9309C00E5F1F4FFD
:1031F0000E0D1F1DF90111830083EB2DFA2F6115B0
:10320000710531F0DB011396FC93EE93129744C0E5
:10321000F0933D03E0933C033FC06D917C91119787
:103220006616770608F43B01BD0112960D90BC911D
:10323000A02DB4CF60913A0370913B0368157905D6
:10324000E9F468167906D0F440910001509101012B
:103250004115510541F44DB75EB76091040170917D
:103260000501461B570BE417F507C0F4F0933B0329
:10327000E0933A03F901918380830EC00E946417A2
:103280007C01009759F0A801BE010E948819CE0167
:103290000E94FC17C70104C0CE0102C080E090E08C
:1032A000CDB7DEB7EEE00C942F1DFC0188279927DF
:1032B000E89421912032E9F3293010F02E30C8F340
:1032C0002B3241F02D3239F4689404C00E94F61973
:1032D000820F911D219120532A30C0F31EF4909546
:1032E00081959F4F0895FB01DC0105900D92002010
:1032F000E1F70895FC0105900020E9F7809590958D
:103300008E0F9F1F08954CE652E00E94B519089554
:10331000FB01DC0102C001900D9241505040D8F7F2
:103320000895FB01DC018D91019080190110D9F302
:10333000990B0895FB01DC0101900D920020E1F74B
:103340000895DC01FB014150504058F049F00190D4
:103350000D920020C1F7E61BF70B3197CF010895BE
:103360001C9201900020E9F7F6CFFA01A191B081FB
:10337000009719F41097E1F0CD01DC01CD010D901B
:10338000002011F4C00113C0FB012191222319F088
:103390002015D9F7F3CFFB012191201519F41E92C6
:1033A000119606C02223C1F70D900020A1F7D0018D
:1033B000FA01A193B0830895BB274A3031F49923D1
:1033C00022F4BDE2909581959F4F0C942C1ABB2757
:1033D0002A3051F4992342F4BDE29095809570957E
:1033E00061957F4F8F4F9F4F0C94FF197AE0979F05
:1033F000902D879F802D910D11240895BB27FA01F0
:10340000A62F6217710581059105330B30FB66F01D
:10341000AA27660F771F881F991FAA1FA21710F0EF
:10342000A21B63953850A9F7A05DAA3308F0A95DE7
:10343000A19336F7B111B1931082CA010C946F1C9D
:103440004532510520F4423010F00C942B1AFB0148
:103450001082CB010895BB27FB015527AA27880FAF
:10346000991FAA1FA41710F0A41B83955051B9F7F8
:10347000A05DAA3308F0A95DA193009779F7B11177
:10348000B1931192CB010C946F1CAEE0B0E0EBE471
:10349000FAE10C941D1D8C01CA014EE04C831A8385
:1034A000098377FF02C060E070E8615071097E8394
:1034B0006D83A901BC01CE0101960E94711A4D8154
:1034C0005E8157FD0AC02F813885421753070CF4DF
:1034D0009A01F801E20FF31F10822E96E4E00C949B
:1034E000391DACE0B0E0E7E7FAE10C940F1D7C0178
:1034F0006B018A01FC0117821682838181FFBDC1A5
:10350000CE0101964C01F7019381F60193FD85915F
:1035100093FF81916F01882309F4ABC1853239F49F
:1035200093FD859193FF81916F01853229F4B70155
:1035300090E00E947F1CE7CF512C312C20E02032FC
:10354000A0F48B3269F030F4803259F0833269F4A0
:1035500020612CC08D3239F0803339F4216026C0CF
:103560002260246023C0286021C027FD27C030EDE1
:10357000380F3A3078F426FF06C0FAE05F9E300D2F
:103580001124532E13C08AE0389E300D1124332E9F
:1035900020620CC08E3221F426FD6BC1206406C06F
:1035A0008C3611F4206802C0883641F4F60193FD90
:1035B000859193FF81916F018111C1CF982F9F7DDC
:1035C0009554933028F40C5F1F4FFFE3F9830DC02F
:1035D000833631F0833771F0833509F05BC022C048
:1035E000F801808189830E5F1F4F44244394512C3E
:1035F000540115C03801F2E06F0E711CF801A08073
:10360000B18026FF03C0652D70E002C06FEF7FEF31
:10361000C5012C870E94641C2C0183012C852F7707
:10362000222E17C03801F2E06F0E711CF801A08045
:10363000B18026FF03C0652D70E002C06FEF7FEF01
:10364000C5012C870E94591C2C012C852068222E34
:10365000830123FC1BC0832D90E048165906B0F46B
:10366000B70180E290E00E947F1C3A94F4CFF5010C
:1036700027FC859127FE81915F01B70190E00E94B0
:103680007F1C31103A94F1E04F1A51084114510453
:1036900071F7E5C0843611F0893639F5F80127FF56
:1036A00007C060817181828193810C5F1F4F08C0C8
:1036B00060817181882777FD8095982F0E5F1F4F5D
:1036C0002F76B22E97FF09C09095809570956195E1
:1036D0007F4F8F4F9F4F2068B22E2AE030E0A40129
:1036E0000E94B11CA82EA81844C0853729F42F7E4B
:1036F000B22E2AE030E025C0F22FF97FBF2E8F36A0
:10370000C1F018F4883579F0B4C0803719F08837E3
:1037100021F0AFC02F2F2061B22EB4FE0DC08B2D33
:103720008460B82E09C024FF0AC09F2F9660B92E6E
:1037300006C028E030E005C020E130E002C020E112
:1037400032E0F801B7FE07C0608171818281938108
:103750000C5F1F4F06C06081718180E090E00E5FBA
:103760001F4FA4010E94B11CA82EA818FB2DFF77A3
:10377000BF2EB6FE0BC02B2D2E7FA51450F4B4FE29
:103780000AC0B2FC08C02B2D2E7E05C07A2C2B2D32
:1037900003C07A2C01C0752C24FF0DC0FE01EA0D78
:1037A000F11D8081803311F4297E09C022FF06C0FB
:1037B0007394739404C0822F867809F0739423FD68
:1037C00013C020FF06C05A2C731418F4530C57185A
:1037D000732C731468F4B70180E290E02C870E9488
:1037E0007F1C73942C85F5CF731410F4371801C027
:1037F000312C24FF12C0B70180E390E02C870E9497
:103800007F1C2C8522FF17C021FF03C088E590E0B4
:1038100002C088E790E0B7010CC0822F867859F08B
:1038200021FD02C080E201C08BE227FD8DE2B701DD
:1038300090E00E947F1CA51438F4B70180E390E06B
:103840000E947F1C5A94F7CFAA94F401EA0DF11D4F
:103850008081B70190E00E947F1CA110F5CF33203A
:1038600009F451CEB70180E290E00E947F1C3A94A7
:10387000F6CFF7018681978102C08FEF9FEF2C96DC
:10388000E2E10C942B1DF999FECF92BD81BDF89A0F
:10389000992780B50895262FF999FECF1FBA92BDBA
:1038A00081BD20BD0FB6F894FA9AF99A0FBE019621
:1038B0000895FC010590615070400110D8F7809583
:1038C00090958E0F9F1F0895FC01615070400190EC
:1038D0000110D8F7809590958E0F9F1F0895DC01F9
:1038E000FC01672F71917723E1F7329704C07C9137
:1038F0006D9370836291AE17BF07C8F308950F935D
:103900001F93CF93DF93182F092FEB018B8181FD3C
:1039100003C08FEF9FEF20C082FF10C04E815F81F8
:103920002C813D81421753077CF4E881F9819F0186
:103930002F5F3F4F39832883108306C0E885F985C0
:10394000812F0995892B29F72E813F812F5F3F4FCA
:103950003F832E83812F902FDF91CF911F910F9165
:103960000895FA01AA27283051F1203181F1E89415
:103970006F936E7F6E5F7F4F8F4F9F4FAF4FB1E062
:103980003ED0B4E03CD0670F781F891F9A1FA11D5D
:10399000680F791F8A1F911DA11D6A0F711D811D5E
:1039A000911DA11D20D009F468943F912AE0269F23
:1039B00011243019305D3193DEF6CF010895462F82
:1039C0004770405D4193B3E00FD0C9F7F6CF462F63
:1039D0004F70405D4A3318F0495D31FD40524193CC
:1039E00002D0A9F7EACFB4E0A69597958795779589
:1039F0006795BA95C9F700976105710508959B0110
:103A0000AC010A2E06945795479537952795BA9598
:103A1000C9F7620F731F841F951FA01D08952F9271
:103A20003F924F925F926F927F928F929F92AF924E
:103A3000BF92CF92DF92EF92FF920F931F93CF939B
:103A4000DF93CDB7DEB7CA1BDB0B0FB6F894DEBF32
:103A50000FBECDBF09942A88398848885F846E8458
:103A60007D848C849B84AA84B984C884DF80EE80A2
:103A7000FD800C811B81AA81B981CE0FD11D0FB6AB
:103A8000F894DEBF0FBECDBFED010895F894FFCFCF
:103A900000003E0380006400C70041414100000077
:103AA00006005C0052464D5F4E4F44455F4944005E
:103AB00052464D5F4E4554574F524B5F4944004567
:103AC000535743004C6F6F70696E6700436F6D6DA5
:103AD000756E69636174696F6E206572726F7220B2
:103AE0002D206A6F79737469636B2076616C7565DC
:103AF00073206F7574206F662072616E6765004A6F
:103B00006F79737469636B207570646174656400A8
:103B100054696D656F757420666F72206C61737483
:103B200020636F6D6D616E642065786365656465A3
:103B3000642E20526573657474696E6720746F20FB
:103B400063656E7472650023623D0030003100329F
:103B5000003133003134003233003234006C6162A2
:103B6000656C3A25732C20686561703A25642C20B9
:103B7000737461636B3A2564005D004D47474700ED
:103B8000426C6F636B207769746820746167205B97
:103B9000005D20666F756E64206174206C6F6361D8
:103BA00074696F6E205B005D206C656E67746820C1
:103BB0005B005D207769746820636F6E74656E7456
:103BC00073205B005100450050002C003A000000BB
:103BD00000006A0700000000810400000000CC1013
:103BE00048124E1067105910AA100D0A006E616E2F
:0C3BF00000696E66006F7666002E000013
:00000001FF
