:100000000C9463020C948B020C948B020C948B0264
:100010000C948B020C948B020C948B020C948B022C
:100020000C948B020C948B020C948B020C948B021C
:100030000C948B020C948B020C948B020C948B020C
:100040000C94CF0D0C948B020C943B100C946D10FF
:100050000C948B020C948B020C948B020C948B02EC
:100060000C948B020C948B021807150720072907A4
:10007000320742072F073F07536574757020636F7F
:100080006D706C6574650053657475702073746170
:1000900072740020206E6F64654964202020202047
:1000A00020203D205B005D00202072666D4E65744F
:1000B000776F726B4964203D205B005D00202072E9
:1000C000666D4E6F64654964202020203D205B00F2
:1000D0005D0043757272656E7420636F6E6669674A
:1000E000004E4F44455F49442020202020202020FE
:1000F0002020204E4F44455F4944202020202020CE
:10010000202020636861725B385D0052464D5F4E6F
:100110004554574F524B5F49442020202052464DB2
:100120005F4E4554574F524B5F49442020696E74CF
:100130000052464D5F4E4F44455F494420202020E9
:1001400020202052464D5F4E4F44455F49442020B9
:10015000202020696E7400436F6E74696E75696E3D
:1001600067207374617274757000456E746572698E
:100170006E67206D616E75616C20636F6E66696776
:10018000206D6F64650050726573732027432720CC
:10019000616E642027456E7465722720746F206538
:1001A0006E74657220636F6E666967206D6F64653B
:1001B000206F722027512720746F20636F6E74693F
:1001C0006E756520696D6D6564696174656C790033
:1001D0005573696E6720636F6E666967002073658B
:1001E0006373005374617274696E6720757020695F
:1001F0006E20005D005D20746F2076616C75652057
:100200005B0053657474696E67206974656D205B6B
:100210000045786974696E6720696E746572616300
:100220007469766520636F6E666967206D6F6465BB
:1002300000436F6E666967206D6F646520656E743C
:1002400065726564004661696C656420746F207234
:1002500065616420636F6E6669672066726F6D20EA
:10026000454550524F4D2E205573696E6720646589
:100270006661756C7420636F6E66696720616E6479
:100280002077726974696E6720746F2045455052FB
:100290004F4D2E005375636365737366756C6C798F
:1002A000207265616420636F6E6669672066726F95
:1002B0006D20454550524F4D2E0052656164696E68
:1002C0006720636F6E6669672066726F6D204545B3
:1002D00050524F4D2E0057726974696E6720636FDC
:1002E0006E66696720746F20454550524F4D00512E
:1002F000202020202020203D207175697400482096
:100300002020202020203D207072696E74207468A7
:1003100069732068656C70207465787400572020BC
:1003200020202020203D20777269746520636F6E45
:1003300066696720746F20454550524F4D0050202C
:100340002020202020203D207072696E7420636F71
:100350006E666967004974656D204964202020201D
:10036000202020202020204974656D204E616D657D
:100370002020202020202056616C756500533A4BC8
:100380002C562020203D20736574206974656D20F3
:100390004B20746F2076616C7565205600436F6D3D
:1003A0006D616E64732061726500426C6F636B20D7
:1003B0007265616420657272726F3A20636865636A
:1003C0006B73756D206D69736D617463680057722E
:1003D0006974696E6720626C6F636B206174205B67
:1003E00000426C6F636B20666F756E6420617420D1
:1003F0005B00426C6F636B206E6F7420666F756E6E
:10040000640057726974652061626F727465643A42
:10041000207461672073697A6520696E636F7272F8
:10042000656374007468726F74746C65002064692D
:1004300072656374696F6E0054696D656F757420C1
:10044000666F72206C61737420636F6D6D616E6492
:100450002065786365656465642E205265736574F4
:1004600074696E6720746F2043454E5452450052A4
:100470006561642066726F6D20426C7565746F6F84
:100480007468202D20000102040810204080010221
:1004900004081020010204081020040404040404C9
:1004A0000404020202020202030303030303000026
:1004B0000000250028002B00000000002400270079
:1004C0002A00A40B9D1011241FBECFEFD8E0DEBF81
:1004D000CDBF12E0A0E0B1E0E0E8F5E302C0059096
:1004E0000D92A43CB107D9F724E0A4ECB2E001C01E
:1004F0001D92A739B207E1F714E0C6ECD4E004C0BE
:100500002297FE010E94A617C23CD107C9F70E949C
:10051000E1100C94BE1A0C940000CF93DF9300D02E
:1005200000D000D0CDB7DEB761E371E0CE01019617
:100530000E94B31469817A8183E191E00E947A0577
:10054000CE0101960E9473136BE071E0CE0101961B
:100550000E94B31469817A8183E191E00E947A0557
:10056000CE0101960E94731361EE70E0CE010196F8
:100570000E94B31469817A8183E191E00E947A0537
:10058000CE0101960E94731326960FB6F894DEBF33
:100590000FBECDBFDF91CF9108950F931F93CF93DF
:1005A000DF93CDB7DEB72C970FB6F894DEBF0FBE42
:1005B000CDBF62ED70E0CE0101960E94B314698157
:1005C0007A8183E191E00E947A05CE0101960E9432
:1005D000731300910601109107016DEB70E0CE01DD
:1005E00007960E94B314BE01695F7F4FCE0101964A
:1005F0000E946514B801CE0101960E94D11560EDEC
:1006000070E00E94ED15FC016081718183E191E051
:100610000E947A05CE0101960E947313CE010796BF
:100620000E947313009108011091090168EA70E0BB
:10063000CE0107960E94B314BE01695F7F4FCE01C1
:1006400001960E946514B801CE0101960E94D11551
:100650006BEB70E00E94ED15FC016081718183E11C
:1006600091E00E947A05CE0101960E947313CE019B
:1006700007960E94731363E970E0CE0107960E940B
:10068000B314BE01695F7F4FCE0101960E946514CD
:100690006AE071E0CE0101960E94B71566EA70E04B
:1006A0000E94ED15FC016081718183E191E00E945F
:1006B0007A05CE0101960E947313CE0107960E941F
:1006C00073132C960FB6F894DEBF0FBECDBFDF912B
:1006D000CF911F910F9108950F931F93CF93DF93A5
:1006E0008C01EB0167E171E00E94FB15882341F06A
:1006F000CE010E94911670930701609306012AC0F3
:1007000063E271E0C8010E94FB15882341F0CE012D
:100710000E94911670930901609308011BC06BE160
:1007200071E0C8010E94FB15882351F0688179812E
:100730008AE091E0DF91CF911F910F910C94EF1916
:1007400062E371E085EF93E0DF91CF911F910F910C
:100750000C949011DF91CF911F910F910895EF921A
:10076000FF920F931F93CF93DF9300D000D000D060
:10077000CDB7DEB726E040E052EC61E070E085EFF7
:1007800093E00E94D90F43E050E065EF73E083E10E
:1007900091E00E94160467E870E0CE0101960E9485
:1007A000B31469817A8183E191E00E947A05CE01D8
:1007B00001960E9473138CE6E82E83E0F82E0DEC70
:1007C00012E02DE832E04DE050E066E071E083E4B5
:1007D00091E00E94070D68E770E0CE0101960E944B
:1007E000B31469817A8183E191E00E947A05CE0198
:1007F00001960E94731326960FB6F894DEBF0FBEC3
:10080000CDBFDF91CF911F910F91FF90EF90089591
:1008100068E471E083E191E00E947A0568EE73E09C
:1008200080E090E00C94480E0C94611AFC017183F6
:100830006083538342830895FC019B0180819181F1
:10084000009741F062817381261737071CF0BA01C7
:100850000C9490110895CF92DF92EF92FF920F9334
:100860001F93CF93DF93CDB7DEB760970FB6F894A1
:10087000DEBF0FBECDBF8C01DC0112968D919C9125
:100880001397009749F419821A821B821C821D82D9
:100890001E821F82188617C1FE01399628E0DF01EB
:1008A0001D922A95E9F7DC01ED91FC910480F58118
:1008B000E02D0995892B09F4D3C062E070E080E057
:1008C00090E00E94480EF80182819381DC01ED9155
:1008D000FC910680F781E02D0995823009F0C0C0B7
:1008E0006E01BAE0CB0ED11CEE24E394F12CD801BA
:1008F00012968D919C911397DC01ED91FC910480EF
:10090000F581E02D0995892BA9F061E070E080E088
:1009100090E00E94480EF80182819381DC01ED9104
:10092000FC910680F781E02D0995F60181936F0116
:1009300087FF06C0F2E0EF16F10409F491C013C07E
:1009400028E0E216F10479F0833049F432E0E3164E
:10095000F10409F485C087E0E816F10421F09FEF67
:10096000E91AF90AC4CFB7E0EB16F10409F078C030
:100970002A8530E02053310974E6729FC001739FCD
:10098000900D11242B8530E0205331096AE0629FDD
:10099000A001639F500D1124840F951F2C8530E01A
:1009A00020533109820F931F4D852E85EF856C01F1
:1009B000F8ECCF1AD10884569109893C9105E8F4E6
:1009C00050E040535109749F7001759FF00C112441
:1009D00030E020533109629FA001639F500D112424
:1009E000E40EF51E8E2F90E0C097E80EF91EC701A9
:1009F00084569109893C910548F040E551E066E054
:100A000070E083E191E00E941C042AC043E851E0B9
:100A100060E070E083E191E00E941C04A701485C63
:100A20005109662757FD6095762FD80114964D938E
:100A30005D936D937C931797C601AA2797FDA095A8
:100A4000BA2FF80180879187A287B3870E94190E79
:100A5000D8011C966D937D938D939C931F972AC00C
:100A60000E94190ED8011C96CD90DD90ED90FC905F
:100A70001F976C197D098E099F096938734181059B
:100A80009105C0F0F8011482158216821782108633
:100A90001186128613860E94190EF80164877587E5
:100AA0008687978744E951E063E070E083E191E055
:100AB0000E941C0488E0F8013496DE011196019032
:100AC0000D928A95E1F729813A814B815C816D8194
:100AD0007E818F81988560960FB6F894DEBF0FBE39
:100AE000CDBFDF91CF911F910F91FF90EF90DF90DD
:100AF000CF900895AB0163E070E00C941C04AB014F
:100B000066E070E00C941C04FC01862F6083718306
:100B10005383428361E00C94BD0ECF93DF93EC01CD
:100B20008DE992E0998388837B836A8381E090E0FA
:100B30009D838C830E94190E6E837F83888799879B
:100B4000DF91CF910895CF92DF92EF92FF920F93B2
:100B50001F93CF93DF93CDB7DEB765970FB6F894A9
:100B6000DEBF0FBECDBF8C01DC0112968D919C9132
:100B70001397009709F4DBC0DC01ED91FC91048030
:100B8000F581E02D0995892B09F4D4C01B8A1C8AB4
:100B90001D8A6BEC71E0F801828193810E946813D9
:100BA00026E030E0AE014D5E5F4F63E2D801129661
:100BB0008D919C9113970E947112181619060CF0D2
:100BC0009EC067EB72E0CE010D960E94E113BE015C
:100BD0006D5E7F4FCE010D960E94EF146FE674E0BC
:100BE000CE0107960E94B314BE01695F7F4FCE010C
:100BF00001960E946514BE01635F7F4FCE0101968E
:100C00000E94A415FC014081518160E070E083E105
:100C100091E00E941C04CE0101960E947313CE0144
:100C200007960E9473136FEC71E0CE010D960E943F
:100C3000FB15F82E61ED71E0CE010D960E94FB15BB
:100C4000811108C021E090E0F11001C020E0E22E07
:100C5000F92E03C0E2E0EE2EF12C63ED71E0CE013F
:100C60000D960E94FB15882319F073E0E72EF12CF6
:100C700066ED71E0CE010D960E94FB15882319F0F8
:100C800064E0E62EF12C69ED71E0CE010D960E9434
:100C9000FB15882319F055E0E52EF12C65ED71E088
:100CA000CE010D960E94FB15882319F046E0E42E34
:100CB000F12C68ED71E0CE010D960E94FB158823A2
:100CC00019F037E0E32EF12C6BED71E0CE010D96BB
:100CD0000E94FB15882319F028E0E22EF12C6EED1E
:100CE00071E0CE010D960E94FB15882319F099E062
:100CF000E92EF12CCE010D960E94731302C0E12C57
:100D0000F12CE114F10409F441CFD8011596FC92BD
:100D1000EE9214970E94190EF801668377838087FC
:100D20009187D80114968D919C91159734C081E0DC
:100D300090E031C00E94190EF801C680D780E0848F
:100D4000F1846C197D098E099F09653F7140810509
:100D5000910538F381E090E0D80115969C938E932D
:100D600014970E94190EF801668377838087918714
:100D700068E374E0CE0101960E94B31449815A8160
:100D800063E070E083E191E00E941C04CE010196D3
:100D90000E947313C6CF65960FB6F894DEBF0FBEE0
:100DA000CDBFDF91CF911F910F91FF90EF90DF901A
:100DB000CF9008958F929F92AF92BF92CF92DF9281
:100DC000EF92FF92CF93DF93CDB7DEB72E970FB69A
:100DD000F894DEBF0FBECDBF6C010E94A3057C015D
:100DE00020E030E048EC52E4F601628573858485AA
:100DF00095850E941F170E949D164B015C0120E003
:100E000030E048EC52E4F601668577858089918967
:100E10000E941F170E949D16F7013297E830F105D6
:100E2000D8F5EC5CFF4F0C94A41791948194910831
:100E3000AA2497FCA094BA2CC12CD12C760132C0E4
:100E4000CC24DD24C61AD70AEE24D7FCE094FE2C6D
:100E500026C06B01EE24D7FCE094FE2C20C09194B8
:100E600081949108AA2497FCA094BA2CCC24DD2468
:100E7000C61AD70AEE24D7FCE094FE2C13C0919436
:100E800081949108AA2497FCA094BA2C6B01EE24BB
:100E9000D7FCE094FE2C06C0C12CD12C7601812C0D
:100EA000912C540164E274E0CE0109960E94B314BF
:100EB000BE01675F7F4FCE0101960E946514B501A8
:100EC000A401CE0101960E94DF156DE274E00E943C
:100ED000ED15B701A6010E94DF15FC01408151818B
:100EE00060E070E083E191E00E941C04CE01019675
:100EF0000E947313CE0109960E94731389829A820D
:100F0000AB82BC82CD82DE82EF82F886282D3A81C8
:100F10004B815C816C2D7E818F8198852E960FB6DA
:100F2000F894DEBF0FBECDBFDF91CF91FF90EF9061
:100F3000DF90CF90BF90AF909F908F900895CF9308
:100F4000DF93EC0183EA92E0998388837B836A8351
:100F50001C821D821E821F82188619861A861B8695
:100F60000E94190E6C877D878E879F87DF91CF91B6
:100F70000895CF92DF92EF92FF920F931F93CF933A
:100F8000DF93CDB7DEB727970FB6F894DEBF0FBE5D
:100F9000CDBF7C018B0167EB72E04F830E94E113B0
:100FA0004F81642FC8010E9448166C018FEFC8164C
:100FB000D80641F1960140E050E0B801CE0101961B
:100FC0000E944C16BE016F5F7F4FC7010E946E14D6
:100FD000CE0101960E947313F80124813581A60188
:100FE0004F5F5F4FB801CE0101960E944C16BE01C3
:100FF0006F5F7F4FC8010E946E14CE0101960E9460
:10100000731319C0F8012481358140E050E0B80124
:10101000CE0101960E944C16BE016F5F7F4FC70143
:101020000E946E14CE0101960E94731367EB72E06A
:10103000C8010E947A14C70127960FB6F894DEBF44
:101040000FBECDBFDF91CF911F910F91FF90EF9019
:10105000DF90CF9008952091C4023091C502232BD8
:10106000F9F4A6ECB2E0FD017E2F7A1B28E030E017
:10107000472F50E0440F551F77FF02C077E001C0B3
:1010800070E074272150310999F7719323E0E63C11
:10109000F20751F721E030E03093C5022093C402FB
:1010A000DC01EC91E627F0E0EA53FD4F20812C9320
:1010B0000895CF92DF92EF92FF920F931F93CF93F9
:1010C000DF937C018B016A01EB01CE01801B910B48
:1010D0008C159D052CF46991C7010E942B08F5CF52
:1010E000DF91CF911F910F91FF90EF90DF90CF9004
:1010F0000895CF93DF93EC010E9414048D3499F48A
:10110000CE0101960E941404873469F4CE01029640
:101110000E941404873439F4CE0103960E9414040B
:1011200091E0873409F090E0892FDF91CF91089505
:101130000F931F93CF93DF938C01EB010E94140454
:1011400090E02881332727FD30958217930731F5EA
:10115000C80101960E94140490E02981332727FDDD
:10116000309582179307D1F4C80102960E941404A7
:1011700090E02A81332727FD30958217930771F479
:10118000C80103960E941404482F50E02B81332796
:1011900027FD309581E04217530709F080E0DF9189
:1011A000CF911F910F9108950F931F93CF93DF93CA
:1011B0008C01EB01C11584E0D8078CF4CE010E94AC
:1011C0007908882351F00115110559F0B801CE01B5
:1011D00004960E949808811104C02196EBCFCFEFAE
:1011E000DFEFCE01DF91CF911F910F9108956F92A4
:1011F0007F929F92AF92BF92CF92DF92EF92FF9237
:101200000F931F93CF93DF931F92CDB7DEB76C017F
:10121000962E7A015901662E772E00E010E00E1509
:101220001F0568F4F30161913F01C8018C0D9D1DFC
:1012300079830E94691A0F5F1F4F7981F0CFA11443
:10124000B10429F0A701692DC5010E945908C60102
:101250008E0D9F1D0F90DF91CF911F910F91FF90E9
:10126000EF90DF90CF90BF90AF909F907F906F9066
:1012700008956F927F928F929F92AF92BF92CF927A
:10128000DF92EF92FF920F931F93CF93DF93CDB72F
:10129000DEB728970FB6F894DEBF0FBECDBF6C0146
:1012A0004B01742E652E5901FC0101900020E9F7D5
:1012B0003197E81BF90B349718F462E074E010C022
:1012C000F901E080F180FFEFEF16FF06E9F460E03E
:1012D00070E00E94D4087C0197FF13C062EF73E0B6
:1012E000CE0101960E94B31469817A8183E191E075
:1012F0000E947F05CE0101960E9473138FEF9FEF2E
:1013000058C061EE73E002C06EEC73E0CE0101964E
:101310000E94B314B701CE0101960E94121563EF2B
:1013200071E0CE0101960E94EF1469817A8183E118
:1013300091E00E947A05CE0101960E9473131886EF
:1013400020E030E044E050E065EF71E0C7010E942A
:10135000F7089E01285F3F4F44E050E0B6010E942D
:10136000F7087F829E01285F3F4F41E050E0BE01B9
:10137000695F7F4F0E94F7089E01285F3F4F472D0E
:10138000562DB4010E94F7082885298320E030E01B
:1013900041E050E0BE016F5F7F4F0E94F708F5010A
:1013A000F182E0828E199F09F8019183808380E0A9
:1013B00090E028960FB6F894DEBF0FBECDBFDF9148
:1013C000CF911F910F91FF90EF90DF90CF90BF9042
:1013D000AF909F908F907F906F900895AF92BF9243
:1013E000CF92DF92EF92FF920F931F93CF93DF93F1
:1013F0007C016B015901EA0100E010E00C151D05AC
:1014000080F4C8018E0D9F1D0E9414048993A114BD
:10141000B10421F0682FC5010E942B080F5F1F4FF8
:10142000EDCFC7018C0D9D1DDF91CF911F910F91C5
:10143000FF90EF90DF90CF90BF90AF9008957F9294
:101440008F929F92AF92BF92CF92DF92EF92FF92D4
:101450000F931F93CF93DF93CDB7DEB761970FB68E
:10146000F894DEBF0FBECDBF6C014B01742E590145
:1014700020E030E0AE01455F5F4F64E070E00E9425
:10148000EE09198A9E012F5E3F4FAE01495F5F4F03
:1014900064E070E00E94EE09E114F10449F04F812C
:1014A000588569857A85F701408351836283738308
:1014B000788A9E012F5E3F4FAE01405F5F4F61E033
:1014C00070E00E94EE09E888FF24E7FCF0949E019A
:1014D0002F5E3F4FA401B7010E94EE0920E030E0EB
:1014E000AE01415F5F4F61E070E00E94EE093F8511
:1014F0002989321799F06AEA73E0CE0101960E94B9
:10150000B31469817A8183E191E00E947F05CE0165
:1015100001960E9473138FEF9FEF0AC08C199D09EB
:10152000F80191838083F501F182E08280E090E010
:1015300061960FB6F894DEBF0FBECDBFDF91CF919D
:101540001F910F91FF90EF90DF90CF90BF90AF90E1
:101550009F908F907F900895AF92BF92CF92DF922D
:10156000EF92FF920F931F93CF93DF9300D000D0A1
:10157000CDB7DEB75B01670160E070E02B833C8391
:1015800049835A830E94D408F801918380832B8178
:101590003C8149815A8197FD07C0E12CF12C8601DD
:1015A000B5010E941F0A02C08FEF9FEF0F900F90AE
:1015B0000F900F90DF91CF911F910F91FF90EF90BF
:1015C000DF90CF90BF90AF900895CF93DF93EC0161
:1015D0006DE973E085EF93E00E946C116DE773E0B5
:1015E00085EF93E00E946C1165E573E085EF93E071
:1015F0000E946C11FE0109956EE373E085EF93E0A4
:101600000E946C116DE173E085EF93E00E946C1114
:101610006EEF72E085EF93E00E946C116FEE72E066
:1016200085EF93E0DF91CF910C946C11EF92FF92D4
:101630000F931F93CF93DF9300D000D000D0CDB78E
:10164000DEB77C017E836D83890166ED72E085EFF4
:1016500093E00E946C111C830B838E010F5F1F4F60
:101660009E012D5F3F4F42E050E0BE016B5F7F4F18
:10167000C7010E94390997FF03C06EE372E002C000
:101680006FE572E085EF93E00E94901126960FB609
:10169000F894DEBF0FBECDBFDF91CF911F910F91A8
:1016A000FF90EF9008958F929F92AF92BF92CF924A
:1016B000DF92EF92FF920F931F93CF93DF9300D0AF
:1016C00000D000D0CDB7DEB76C015B014A016AEBF8
:1016D00072E085EF93E00E946C11CE0101967C01CF
:1016E0008E010D5F1F4F9E012B5F3F4FA401B5017F
:1016F000C6010E94AC0A892B39F464E972E085EFD7
:1017000093E00E946C110DC065E472E085EF93E0F8
:101710000E946C1120E030E0A401B501C6010E94D6
:10172000160B26960FB6F894DEBF0FBECDBFDF9125
:10173000CF911F910F91FF90EF90DF90CF90BF90CE
:10174000AF909F908F90089544E150E06DE070E07D
:1017500088EE93E00E94840560E070E086ED93E0FF
:101760000E948D0560E070E086EC93E00C949F078A
:101770000F931F93CF93DF938C01C0E0D0E085EFF0
:1017800093E00E94F60E1816190694F4CD2B71F40E
:1017900085EF93E00E940F0F8A3029F0682FC8016F
:1017A0000E94FF14EACFC1E0D0E0E9CFC1E0D0E071
:1017B000CE01DF91CF911F910F9108956F927F928B
:1017C0008F929F92AF92BF92CF92DF92EF92FF9251
:1017D0000F931F93CF93DF93CDB7DEB7AA970FB6C2
:1017E000F894DEBF0FBECDBF6C015B014A01390129
:1017F00067EB72E0CE0185960E94E11361E372E02F
:1018000085EF93E00E946C11C3010E94E50ACE01AE
:1018100085960E94B80B0197D1F760E070E0CE0189
:1018200085960E941A16FC018081883421F4C30138
:101830000E94E50AE5C063E872E0CE0185960E9449
:10184000FB15882329F161E172E085EF93E00E94A6
:101850006C1167EB72E0CE0185960E947A14CE017E
:1018600085960E947313AA960FB6F894DEBF0FBE3A
:10187000CDBFDF91CF911F910F91FF90EF90DF903F
:10188000CF90BF90AF909F908F907F906F90089572
:1018900065E872E0CE0185960E94FB15882319F059
:1018A000F8010995ADC060E070E0CE0185960E9418
:1018B0001A16FC018081873541F42FEF3FEFA40118
:1018C000B501C6010E94160B9BC060E070E0CE011E
:1018D00085960E941A16FC018081823531F4A4019C
:1018E000B501C6010E94530B8BC060E070E0CE01D1
:1018F00085960E941A16FC018081833509F073C019
:101900004AE3BE016B5D7F4FCE014F960E94B9073F
:101910004CE2BE016B5D7F4FCE0149960E94B90734
:101920004CE2BE016B5D7F4FCE0143960E94B9072A
:1019300062E072E0CE010D960E94B314BE01675EB4
:101940007F4FCE010D960E94E81465EF71E0CE0145
:101950000D960E947515BE016D5E7F4FCE010D96EE
:101960000E94E81463EF71E0CE010D960E94751598
:10197000BE01635F7F4F85EF93E00E947E11BE0141
:101980006D5E7F4FCE0101960E946514BE01675EB9
:101990007F4FCE0107960E946514BE016F5F7F4F97
:1019A000CE010796F7010995CE0107960E947313A1
:1019B000CE0101960E94731367EB72E0CE0185960B
:1019C0000E947A14CE010D960E947313CE014396A5
:1019D0000E947313CE0149960E947313CE014F9655
:1019E0000E94731314CF67E872E085EF93E00E94C2
:1019F0009011BE016B5D7F4F85EF93E00E947E11D9
:101A000067EB72E0CE0185960E947A1400CF2F9288
:101A10003F924F925F926F927F928F929F92AF927E
:101A2000BF92CF92DF92EF92FF920F931F93CF93CB
:101A3000DF9300D000D000D0CDB7DEB76C015B01E2
:101A40004A012901370167EB72E0CE0101960E943D
:101A5000E11385EF93E00E94520F63EE71E085EF92
:101A600093E00E942E114AE050E06AE070E085EFBA
:101A700093E00E943B126DED71E085EF93E00E94D0
:101A80006C1160ED71E085EF93E00E946C11A40190
:101A9000B501C6010E94530BF801099566E871E093
:101AA00085EF93E00E946C11E12CF12C67E972E064
:101AB00085EF93E00E945F1185EF93E00E94520F43
:101AC00064E670E080E090E00E94480ECE0101964E
:101AD0000E94B80B019719F0212C312C1DC066E42F
:101AE00071E0CE0101960E94FB15882351F067EB4F
:101AF00072E0CE0101960E947A1422242394312CA4
:101B00000BC063E872E0CE0101960E94FB158823AA
:101B100019F3212C312C0CC0F3E6EF16F10441F03F
:101B20008FEFE81AF80A232809F222242394312C93
:101B300085EF93E00E9468112A94232869F46AE6ED
:101B400071E085EF93E00E946C1173019201A40192
:101B5000B501C6010E94DE0B67E571E085EF93E0F9
:101B60000E946C11CE0101960E94731326960FB647
:101B7000F894DEBF0FBECDBFDF91CF911F910F91C3
:101B8000FF90EF90DF90CF90BF90AF909F908F909D
:101B90007F906F905F904F903F902F9008951F928D
:101BA0000F920FB60F9211242F933F938F939F9311
:101BB000AF93BF938091ED039091EE03A091EF035B
:101BC000B091F0033091EC0323E0230F2D3720F484
:101BD0000196A11DB11D05C026E8230F0296A11D87
:101BE000B11D2093EC038093ED039093EE03A0933B
:101BF000EF03B093F0038091F1039091F203A09171
:101C0000F303B091F4030196A11DB11D8093F1037C
:101C10009093F203A093F303B093F403BF91AF91B9
:101C20009F918F913F912F910F900FBE0F901F901A
:101C300018952FB7F8946091ED037091EE038091A1
:101C4000EF039091F0032FBF08953FB7F894809170
:101C5000F1039091F203A091F303B091F40326B540
:101C6000A89B05C02F3F19F00196A11DB11D3FBFD4
:101C70006627782F892F9A2F620F711D811D911D64
:101C800042E0660F771F881F991F4A95D1F7089584
:101C90008F929F92AF92BF92CF92DF92EF92FF927C
:101CA0006B017C010E94250E4B015C01C114D10423
:101CB000E104F104F1F00E949C160E94250E6819BF
:101CC00079098A099B09683E73408105910570F383
:101CD00021E0C21AD108E108F10888EE880E83E0FD
:101CE000981EA11CB11CC114D104E104F10429F710
:101CF000DDCFFF90EF90DF90CF90BF90AF909F909F
:101D00008F900895789484B5826084BD84B5816095
:101D100084BD85B5826085BD85B5816085BDEEE6F3
:101D2000F0E0808181608083E1E8F0E010828081D2
:101D300082608083808181608083E0E8F0E0808140
:101D400081608083E1EBF0E0808184608083E0EB60
:101D5000F0E0808181608083EAE7F0E08081846048
:101D600080838081826080838081816080838081A4
:101D7000806880831092C1000895CF93DF9390E034
:101D8000FC01EA57FB4F2491FC01E656FB4F84917E
:101D9000882349F190E0880F991FFC01E854FB4F1C
:101DA000A591B49182559B4FFC01C591D4919FB7E9
:101DB000611108C0F8948C91209582238C938881BE
:101DC00082230AC0623051F4F8948C91322F3095FE
:101DD00083238C938881822B888304C0F8948C9110
:101DE000822B8C939FBFDF91CF910895FC01818D51
:101DF000228D90E0805C9F4F821B91098F73992701
:101E00000895FC01918D828D981731F0828DE80F35
:101E1000F11D858D90E008958FEF9FEF0895FC01EF
:101E2000918D828D981761F0828DDF01A80FB11D11
:101E30005D968C91928D9F5F9F73928F90E0089535
:101E40008FEF9FEF089583E990E1892B49F080E0BF
:101E500090E0892B29F00E94931081110C940000CE
:101E60000895FC01848DDF01A80FB11DA35ABF4F57
:101E70002C91848D90E001968F739927848FA68989
:101E8000B7892C93A089B1898C9180648C93938DB0
:101E9000848D981306C00288F389E02D80818F7DA0
:101EA00080830895CF93DF93EC01888D8823C9F058
:101EB000EA89FB89808185FD05C0A889B9898C9153
:101EC00086FD0FC00FB607FCF5CF808185FFF2CFEE
:101ED000A889B9898C9185FFEDCFCE010E94310F81
:101EE000E7CFDF91CF910895CF92DF92FF920F93CA
:101EF0001F93CF93DF931F92CDB7DEB76C0181E0C4
:101F0000D60158968C9358975B969C915B975C96FC
:101F10008C915C97981307C05096ED91FC91519766
:101F2000808185FD2EC0F601038D10E00F5F1F4FED
:101F30000F731127F02EF601848DF81211C00FB621
:101F400007FCF9CFD6015096ED91FC915197808115
:101F500085FFF1CFC60169830E94310F6981EBCF04
:101F6000838DE80FF11DE35AFF4F6083D6015B9626
:101F70000C935B975296ED91FC9153978081806210
:101F80000CC0D6015696ED91FC9157976083509600
:101F9000ED91FC91519780818064808381E090E095
:101FA0000F90DF91CF911F910F91FF90DF90CF9015
:101FB0000895BF92CF92DF92EF92FF92CF93DF937B
:101FC000EC016A017B01B22EE889F98982E0808305
:101FD000411581EE580761057105A1F060E079E0D7
:101FE0008DE390E0A70196010E94821721503109EC
:101FF000410951095695479537952795211580E157
:10200000380798F0E889F989108260E874E88EE171
:1020100090E0A70196010E948217215031094109E1
:1020200051095695479537952795EC85FD85308361
:10203000EE85FF852083188EEC89FD89B082EA89C0
:10204000FB89808180618083EA89FB898081886047
:102050008083EA89FB89808180688083EA89FB89A3
:1020600080818F7D8083DF91CF91FF90EF90DF9013
:10207000CF90BF9008951F920F920FB60F92112428
:102080002F938F939F93EF93FF93E0910504F0912B
:1020900006048081E0910B04F0910C0482FD12C0D3
:1020A000908180910E048F5F8F7320910F048217AF
:1020B00051F0E0910E04F0E0EB50FC4F958F8093CF
:1020C0000E0401C08081FF91EF919F918F912F911C
:1020D0000F900FBE0F901F9018951F920F920FB682
:1020E0000F9211242F933F934F935F936F937F939E
:1020F0008F939F93AF93BF93EF93FF9385EF93E0FD
:102100000E94310FFF91EF91BF91AF919F918F91FD
:102110007F916F915F914F913F912F910F900FBEE3
:102120000F901F90189585EF93E00E94F60E21E026
:10213000892B09F420E0822F08951092F803109261
:10214000F70388EE93E0A0E0B0E08093F90390936A
:10215000FA03A093FB03B093FC0389EA92E0909307
:10216000F6038093F50385EC90E09093020480934E
:10217000010484EC90E0909304048093030480ECC9
:1021800090E0909306048093050481EC90E0909396
:1021900008048093070482EC90E090930A048093F3
:1021A000090486EC90E090930C0480930B04109249
:1021B0000E0410920F04109210041092110408954E
:1021C00008950E94820E0E94E0100E94AF03C3E2B5
:1021D000DFE00E9408042097E1F30E94230FF9CF6B
:1021E000CF92DF92EF92FF920F931F93CF93DF93E3
:1021F0007C016A01EB0100E010E00C151D0571F097
:102200006991D701ED91FC910190F081E02DC7011A
:102210000995892B19F00F5F1F4FEFCFC801DF9190
:10222000CF911F910F91FF90EF90DF90CF90089585
:102230006115710581F0DB010D900020E9F7AD011A
:1022400041505109461B570BDC01ED91FC91028076
:10225000F381E02D099480E090E00895EF92FF92E1
:102260000F931F93CF93DF938C017B01C0E0D0E0ED
:10227000F701EC0FFD1F6491662359F0F801A0816E
:10228000B181ED91FC91C8010995892B11F021963E
:10229000EFCFCE01DF91CF911F910F91FF90EF9083
:1022A0000895DC01ED91FC91DB0114964D915C9158
:1022B00015976D917C910280F381E02D09940C9427
:1022C0001811DC01ED91FC910190F081E02D099451
:1022D00065EB72E00C9418110F931F93CF93DF936B
:1022E000EC010E942E118C01CE010E946811800F1A
:1022F000911FDF91CF911F910F9108950F931F931D
:10230000CF93DF93EC010E9451118C01CE010E940A
:102310006811800F911FDF91CF911F910F91089548
:102320000F931F93CF93DF93EC010E9418118C0140
:10233000CE010E946811800F911FDF91CF911F91F4
:102340000F9108958F929F92AF92BF92DF92EF927A
:10235000FF920F931F93CF93DF93CDB7DEB7A19773
:102360000FB6F894DEBF0FBECDBF7C01F42FD52E83
:10237000CB0119A2223008F42AE08E010F5D1F4F15
:10238000822E912CA12CB12C6F2F7D2DA5019401B3
:102390000E948217F22FD32ECA01015011096A3010
:1023A00014F4E0E301C0E7E3E60FD801EC93232B3C
:1023B000242B252B49F7B801C7010E941811A196BB
:1023C0000FB6F894DEBF0FBECDBFDF91CF911F9146
:1023D0000F91FF90EF90DF90BF90AF909F908F9004
:1023E0000895CF92DF92EF92FF920F931F93CF93B6
:1023F000DF93EC016A017B012115310579F4E88155
:10240000F9810190F081E02D642FDF91CF911F9130
:102410000F91FF90EF90DF90CF9009942A30310513
:10242000E9F477FF1AC06DE20E9461118C01442724
:102430005527BA014C195D096E097F092AE0CE01C2
:102440000E94A211800F911FDF91CF911F910F91D8
:10245000FF90EF90DF90CF9008952AE0B701A6019A
:10246000CE01DF91CF911F910F91FF90EF90DF9000
:10247000CF900C94A2119A01AB01662757FD60958D
:10248000762F0C94F1110F931F93CF93DF93EC01F0
:102490000E94190E688779878A879B87E881F9816E
:1024A0000680F781E02DCE01099597FF15C00E94A7
:1024B000190E088519852A853B85601B710B820BD7
:1024C000930B0C811D812E813F816017710782075C
:1024D000930720F38FEF9FEFDF91CF911F910F9123
:1024E0000895AF92BF92CF92DF92EF92FF920F9337
:1024F0001F93CF93DF936C01790121153105B9F05A
:102500008A01C0E0D0E0A62EBB24A7FCB094C6018F
:102510000E94431297FD0EC08A159B0559F0F801E1
:1025200081938F012196CE15DF0589F703C080E0E6
:1025300090E001C0CE01DF91CF911F910F91FF90EC
:10254000EF90DF90CF90BF90AF9008954F925F9241
:102550006F927F928F929F92AF92BF92CF92DF92B3
:10256000EF92FF920F931F93CF93DF934C01EB01F8
:1025700086E0849F8001859F100D1124060F171F90
:10258000FB01E017F10708F582819381892B21F186
:102590003696F7CF4081518164817581DA01A60FAB
:1025A000B71F2C91332727FD30958217930711F51C
:1025B0006F5F7F4F75836483228133816217730756
:1025C00059F03696E017F10728F3C4010E94431230
:1025D00097FD46C0FE01F6CFEC1BFD0BF595E79588
:1025E0002BEA3AEAE29FC001E39F900DF29F900D23
:1025F000112438C06115710521F3A480B5809501BF
:102600002150310935832483DA01A20FB31FAC9125
:10261000BB27A7FDB0958A179B07F9F42115310553
:10262000C9F06A017B01E21AF30AE40EF51E412C9F
:10263000512CD6016D906D01D7017D907D01671001
:1026400006C0BFEF4B1A5B0A4216530690F34216C0
:10265000530699F6B582A482B4CF232B71F6B1CF7D
:102660008FEF9FEFDF91CF911F910F91FF90EF9030
:10267000DF90CF90BF90AF909F908F907F906F90A2
:102680005F904F900895CF93DF9300D000D000D09B
:10269000CDB7DEB7FE01319626E0DF011D922A9507
:1026A000E9F77A8369835C834B8341E050E0BF01A3
:1026B0000E94A61221E0892B09F020E0822F2696A5
:1026C0000FB6F894DEBF0FBECDBFDF91CF91089556
:1026D000FB0101900020E9F7AF0141505109461B71
:1026E000570B0C944313FC01808191810C94421888
:1026F000CF93DF93EC0188819981009711F00E94BC
:102700004218198218821D821C821B821A82DF9154
:10271000CF9108950F931F93CF93DF93EC018B011B
:102720006F5F7F4F888199810E94D118009731F0A7
:10273000998388831B830A8381E001C080E0DF9155
:10274000CF911F910F910895CF93DF93EC01888172
:102750009981892B29F08A819B818617970760F4DC
:10276000CE010E948A13882341F08C819D81892BA0
:1027700019F4E881F981108281E0DF91CF91089509
:10278000EF92FF920F931F93CF93DF93EC017B01A6
:102790008A01BA010E94A413811104C0CE010E94D3
:1027A000781307C01D830C83B701888199810E942B
:1027B000EF19CE01DF91CF911F910F91FF90EF9014
:1027C0000895FC01118210821382128215821482F4
:1027D0006115710559F0FB0101900020E9F7AF0187
:1027E00041505109461B570B0C94C0130895EF92AA
:1027F000FF920F931F93CF93DF93EC017B018A012C
:10280000BA010E94A413811104C0CE010E94781362
:1028100007C01D830C83B701888199810E94C2196A
:10282000CE01DF91CF911F910F91FF90EF9008950E
:102830000F931F93CF93DF938C01EB01FC018081F9
:102840009181009799F0428153812C813D814217FB
:10285000530750F0688179810E94EF198C819D8126
:10286000F8019583848313C00E944218888199815E
:10287000F801918380838A819B81938382838C81F9
:102880009D8195838483198218821B821A821D82FE
:102890001C82DF91CF911F910F910895CF93DF9309
:1028A000EC01FB018617970761F06081718161156A
:1028B000710529F0448155810E94C01302C00E9415
:1028C0007813CE01DF91CF910895FC01118210821F
:1028D00013821282158214820C944E14CF93DF93CC
:1028E000EC018617970711F00E941814CE01DF91B2
:1028F000CF910895CF93DF93EC016115710561F0DD
:10290000FB0101900020E9F7AF0141505109461B3E
:10291000570B0E94C01302C00E947813CE01DF91B2
:10292000CF9108950F931F93CF93DF9300D0CDB72E
:10293000DEB78C016115710561F0CB0169837A8383
:102940000E94C919AC0169817A81C8010E94F713FC
:1029500002C00E947813C8010F900F90DF91CF91B1
:102960001F910F910895FC0111821082138212822F
:10297000158214820C949214EF92FF920F931F937E
:10298000CF93DF93EC017B010C811D8161157105F3
:1029900011F480E016C04115510591F0040F151F88
:1029A000B8010E94A4138823A1F3288139818C8166
:1029B0009D81B701820F931F0E94EF191D830C8325
:1029C00081E0DF91CF911F910F91FF90EF900895DB
:1029D000FB0144815581608171810C94BC146115A7
:1029E000710559F0FB0101900020E9F7AF0141505A
:1029F0005109461B570B0C94BC1480E00895CF93EB
:102A0000DF9300D0CDB7DEB769831A8241E050E092
:102A1000BE016F5F7F4F0E94BC140F900F90DF913B
:102A2000CF910895EF92FF920F931F93CF93DF936F
:102A3000CDB7DEB728970FB6F894DEBF0FBECDBF77
:102A40007C01CB014AE08E010F5F1F4FB8010E944D
:102A5000F619F80101900020E9F7AF014150510942
:102A6000401B510BB801C7010E94BC1428960FB639
:102A7000F894DEBF0FBECDBFDF91CF911F910F91B4
:102A8000FF90EF900895EF92FF920F931F93CF93D3
:102A9000DF93CDB7DEB72E970FB6F894DEBF0FBE2B
:102AA000CDBF7C01CB01BA012AE08E010F5F1F4F21
:102AB000A8010E94011AF80101900020E9F7AF0176
:102AC00041505109401B510BB801C7010E94BC1471
:102AD0002E960FB6F894DEBF0FBECDBFDF91CF911B
:102AE0001F910F91FF90EF900895EF92FF920F9337
:102AF0001F93CF93DF93EC017B016115710511F4F6
:102B000080E01BC0CB010E94C9190097A9F00C817D
:102B10001D81080F191FB801CE010E94A41388233C
:102B200079F3288139818C819D81B701820F931FB0
:102B30000E94C2191D830C8381E0DF91CF911F9108
:102B40000F91FF90EF900895CF93DF93EC01FB017D
:102B500044815581608171810E94BC14811103C040
:102B6000CE010E947813CE01DF91CF910895CF93CB
:102B7000DF93EC016115710569F0FB010190002004
:102B8000E9F7AF0141505109461B570B0E94BC1495
:102B9000811103C0CE010E947813CE01DF91CF9145
:102BA0000895CF93DF93EC010E941215811103C0A9
:102BB000CE010E947813CE01DF91CF910895CF937B
:102BC000DF93EC010E944315811103C0CE010E94E6
:102BD0007813CE01DF91CF910895CF93DF93EC016D
:102BE0000E947515811103C0CE010E947813CE0199
:102BF000DF91CF910895FC0124813581232B31F49D
:102C000021E061157105A1F0FB0108C0FC01808184
:102C100091816115710531F421E0FC0180818823E7
:102C200039F005C00E94E61921E0892B09F020E067
:102C3000822F0895FC01848195816817790720F41B
:102C400080819181009729F41092920482E994E0A6
:102C50000895860F971F0895CF93DF93FC01848119
:102C600095814817590778F4C081D181772767FD8E
:102C70007095CE01840F951F0E94DB19009719F003
:102C80008C1B9D0B02C08FEF9FEFDF91CF910895BA
:102C900040E050E00C942C16BF92CF92DF92EF925E
:102CA000FF920F931F93CF93DF936C017B01EA0197
:102CB00089012417350720F48D2FE901042F182FDF
:102CC00067EB72E0C6010E94E113D70114968D9163
:102CD0009C911597C817D907C8F48017910708F475
:102CE0008C01D701ED91FC911197E00FF11FB0809D
:102CF00010826D917C916C0F7D1FC6010E947A1429
:102D0000D701ED91FC91E00FF11FB082C601DF9178
:102D1000CF911F910F91FF90EF90DF90CF90BF90D8
:102D20000895FC0180819181009711F00C949B190A
:102D300060E070E0CB010895089504D06894B1116B
:102D400078C008955BD088F09F5790F0B92F9927ED
:102D5000B751A0F0D1F0660F771F881F991F1AF0A6
:102D6000BA95C9F712C0B13081F062D0B1E00895D0
:102D70005FC0672F782F8827B85F39F0B93FCCF351
:102D8000869577956795B395D9F73EF4909580959C
:102D9000709561957F4F8F4F9F4F089597F99F676B
:102DA00080E870E060E008959FEF80EC08950024D3
:102DB0000A941616170618060906089500240A94A0
:102DC00012161306140605060895092E0394000C26
:102DD00011F4882352F0BB0F40F4BF2B11F460FFB5
:102DE00004C06F5F7F4F8F4F9F4F089557FD9058DE
:102DF000440F551F59F05F3F71F04795880F97FBBF
:102E0000991F61F09F3F79F0879508951216130678
:102E10001406551FF2CF4695F1DF08C016161706A7
:102E20001806991FF1CF86957105610508940895DC
:102E3000E894BB2766277727CB0197F908950BD035
:102E4000C4CFB5DF28F0BADF18F0952309F0A6CF7C
:102E5000ABCF1124EECFCADFA0F3959FD1F3950F2E
:102E600050E0551F629FF001729FBB27F00DB11D0E
:102E7000639FAA27F00DB11DAA1F649F6627B00D9E
:102E8000A11D661F829F2227B00DA11D621F739F87
:102E9000B00DA11D621F839FA00D611D221F749F95
:102EA0003327A00D611D231F849F600D211D822FDC
:102EB000762F6A2F11249F5750408AF0E1F0882323
:102EC0004AF0EE0FFF1FBB1F661F771F881F915030
:102ED0005040A9F79E3F510570F060CFAACF5F3FE9
:102EE000ECF3983EDCF3869577956795B795F79563
:102EF000E7959F5FC1F7FE2B880F911D96958795EB
:102F000097F90895A1E21A2EAA1BBB1BFD010DC063
:102F1000AA1FBB1FEE1FFF1FA217B307E407F50789
:102F200020F0A21BB30BE40BF50B661F771F881F65
:102F3000991F1A9469F760957095809590959B01FB
:102F4000AC01BD01CF010895EE0FFF1F0590F49174
:102F5000E02D0994CF93DF938230910510F482E045
:102F600090E0E0919504F091960420E030E0A0E03C
:102F7000B0E0309739F14081518148175907B8F0D6
:102F80004817590771F482819381109729F013969D
:102F90009C938E9312972CC09093960480939504E3
:102FA00027C02115310531F04217530718F0A90148
:102FB000DB0101C0EF019A01BD01DF010280F38155
:102FC000E02DD7CF21153105F9F0281B390B24301E
:102FD000310580F48A819B816115710521F0FB0127
:102FE0009383828304C09093960480939504FE019A
:102FF000329644C0FE01E20FF31F81939193225059
:103000003109398328833AC0209193043091940484
:10301000232B41F420910201309103013093940459
:103020002093930420910001309101012115310575
:1030300041F42DB73EB74091040150910501241B86
:10304000350BE0919304F0919404E217F307A0F498
:103050002E1B3F0B2817390778F0AC014E5F5F4FEE
:103060002417350748F04E0F5F1F50939404409388
:1030700093048193919302C0E0E0F0E0CF01DF91EF
:10308000CF910895CF93DF93009709F487C0FC0197
:10309000329713821282C0919504D09196042097A2
:1030A00081F420813181280F391F80919304909100
:1030B00094048217930779F5F0939404E0939304B2
:1030C0006DC0DE0120E030E0AE17BF0750F412966D
:1030D0004D915C9113979D014115510509F1DA015C
:1030E000F3CFB383A28340815181840F951F8A1748
:1030F0009B0771F48D919C911197840F951F0296F7
:103100009183808312968D919C91139793838283F0
:103110002115310529F4F0939604E09395043EC0FF
:10312000D9011396FC93EE9312974D915D91A40FE4
:10313000B51FEA17FB0779F480819181840F951FF1
:103140000296D90111969C938E9382819381139656
:103150009C938E931297E0E0F0E08A819B81009728
:1031600019F0FE01EC01F9CFCE01029628813981D8
:10317000820F931F209193043091940428173907EC
:1031800069F4309729F4109296041092950402C0C5
:1031900013821282D0939404C0939304DF91CF9151
:1031A0000895A0E0B0E0E7EDF8E10C948B1AEC0193
:1031B000CB01209719F40E94AA17B8C0FE01E60FB0
:1031C000F71F9E0122503109E217F30708F4ACC043
:1031D000D9010D911C91119706171707B8F005300A
:1031E000110508F49FC0A80144505109461757071C
:1031F00008F498C002501109061B170B0193119394
:103200006D937C93CF010E9442188CC05B01A01A81
:10321000B10A4E01800E911EA0919504B0919604C2
:10322000612C712C60E070E0109709F449C0A8157A
:10323000B905C9F5ED90FC901197670142E0C40E05
:10324000D11CCA14DB0478F147018A189B08640179
:1032500042E0C40ED11C1296BC9012971396AC910A
:10326000B5E0CB16D10440F0B282A3839182808274
:10327000D9018D939C9309C00E5F1F4F0E0D1F1D2A
:10328000F90111830083EB2DFA2F6115710531F0DF
:10329000DB011396FC93EE93129744C0F0939604CF
:1032A000E09395043FC06D917C9111976616770667
:1032B00008F43B01BD0112960D90BC91A02DB4CF36
:1032C000609193047091940468157905E9F4681687
:1032D0007906D0F44091000150910101411551054A
:1032E00041F44DB75EB76091040170910501461B32
:1032F000570BE417F507C0F4F0939404E09393049C
:10330000F901918380830EC00E94AA177C01009767
:1033100059F0A801BE010E94D219CE010E944218A4
:10332000C70104C0CE0102C080E090E0CDB7DEB797
:10333000EEE00C94A71A1F93FC0199278827BC0183
:10334000E89411911032E9F3193010F01E30C8F3EF
:103350001B3251F01D3249F4689406C00E94101AC5
:10336000610F711D811D911D119110531A30B0F321
:103370003EF490958095709561957F4F8F4F9F4F4C
:103380001F910895FB01DC0105900D920020E1F7EB
:103390000895FC0105900020E9F7809590958E0F27
:1033A0009F1F0895FB01DC0102C001900D92415066
:1033B0005040D8F70895FC018191861721F08823A9
:1033C000D9F7992708953197CF010895FB01DC01C2
:1033D0008D91019080190110D9F3990B0895FB018B
:1033E000DC0101900D920020E1F70895BB274A30DF
:1033F00031F4992322F4BDE2909581959F4F0C946E
:10340000481ABB272A3051F4992342F4BDE2909523
:103410008095709561957F4F8F4F9F4F0C94261A22
:10342000592F482F372F262F660F771F881F991F78
:10343000660F771F881F991F620F731F841F951FC8
:10344000660F771F881F991F0895BB27FA01A62FC3
:103450006217710581059105330B30FB66F0AA27D1
:10346000660F771F881F991FAA1FA21710F0A21BB3
:1034700063953850A9F7A05DAA3308F0A95DA19320
:1034800036F7B111B1931082CA010C94771ABB2799
:10349000FB015527AA27880F991FAA1FA41710F010
:1034A000A41B83955051B9F7A05DAA3308F0A95D1C
:1034B000A193009779F7B111B1931192CB010C94BC
:1034C000771AF999FECF92BD81BDF89A992780B5F8
:1034D0000895262FF999FECF1FBA92BD81BD20BD58
:1034E0000FB6F894FA9AF99A0FBE01960895DC0186
:1034F000FC01672F71917723E1F7329704C07C912B
:103500006D9370836291AE17BF07C8F308952F9231
:103510003F924F925F926F927F928F929F92AF9263
:10352000BF92CF92DF92EF92FF920F931F93CF93B0
:10353000DF93CDB7DEB7CA1BDB0B0FB6F894DEBF47
:103540000FBECDBF09942A88398848885F846E846D
:103550007D848C849B84AA84B984C884DF80EE80B7
:10356000FD800C811B81AA81B981CE0FD11D0FB6C0
:10357000F894DEBF0FBECDBFED010895F894FFCFE4
:103580000000970480006400C7004E4F4445494442
:103590005858000000060052464D5F4E4F44455FAC
:1035A00049440052464D5F4E4554574F524B5F4978
:1035B0004400556E6B6E6F776E206B657920747961
:1035C00070650045535743004C6F6F70696E67001C
:1035D000436F6D6D756E69636174696F6E2065729E
:1035E000726F72202D206A6F79737469636B207615
:1035F000616C756573206F7574206F662072616EE3
:103600006765004A6F79737469636B2075706461D4
:103610007465640054696D656F757420666F7220FF
:103620006C61737420636F6D6D616E642065786387
:1036300065656465642E20526573657474696E6790
:1036400020746F2063656E7472650023623D0030E4
:103650000031003200313300313400323300323473
:1036600000686561703A25642C20737461636B3A5D
:103670002564005D004D47474700426C6F636B2037
:103680007769746820746167205B005D20666F75E0
:103690006E64206174206C6F636174696F6E205B6F
:1036A000005D206C656E677468205B005D20776943
:1036B000746820636F6E74656E7473205B0046617E
:1036C000696C656420746F20777269746520636F1C
:1036D0006E66696720746F20454550524F4D005308
:1036E00075636365737366756C6C792077726F743C
:1036F0006520636F6E66696720746F204545505280
:103700004F4D0051005000556E6B6E6F776E206309
:103710006F6D6D616E64002E0000000000DA06001F
:103720000000002B0400000000740FF010F60E0FD4
:103730000F010F520F0D0A006E616E00696E660078
:043740006F7666003A
:00000001FF
